{
  "_format": "hh-sol-artifact-1",
  "contractName": "nft",
  "sourceName": "contracts/nft.sol",
  "abi": [
    {
      "inputs": [],
      "stateMutability": "nonpayable",
      "type": "constructor"
    },
    {
      "inputs": [
        {
          "internalType": "address",
          "name": "sender",
          "type": "address"
        },
        {
          "internalType": "uint256",
          "name": "tokenId",
          "type": "uint256"
        },
        {
          "internalType": "address",
          "name": "owner",
          "type": "address"
        }
      ],
      "name": "ERC721IncorrectOwner",
      "type": "error"
    },
    {
      "inputs": [
        {
          "internalType": "address",
          "name": "operator",
          "type": "address"
        },
        {
          "internalType": "uint256",
          "name": "tokenId",
          "type": "uint256"
        }
      ],
      "name": "ERC721InsufficientApproval",
      "type": "error"
    },
    {
      "inputs": [
        {
          "internalType": "address",
          "name": "approver",
          "type": "address"
        }
      ],
      "name": "ERC721InvalidApprover",
      "type": "error"
    },
    {
      "inputs": [
        {
          "internalType": "address",
          "name": "operator",
          "type": "address"
        }
      ],
      "name": "ERC721InvalidOperator",
      "type": "error"
    },
    {
      "inputs": [
        {
          "internalType": "address",
          "name": "owner",
          "type": "address"
        }
      ],
      "name": "ERC721InvalidOwner",
      "type": "error"
    },
    {
      "inputs": [
        {
          "internalType": "address",
          "name": "receiver",
          "type": "address"
        }
      ],
      "name": "ERC721InvalidReceiver",
      "type": "error"
    },
    {
      "inputs": [
        {
          "internalType": "address",
          "name": "sender",
          "type": "address"
        }
      ],
      "name": "ERC721InvalidSender",
      "type": "error"
    },
    {
      "inputs": [
        {
          "internalType": "uint256",
          "name": "tokenId",
          "type": "uint256"
        }
      ],
      "name": "ERC721NonexistentToken",
      "type": "error"
    },
    {
      "inputs": [
        {
          "internalType": "address",
          "name": "owner",
          "type": "address"
        }
      ],
      "name": "OwnableInvalidOwner",
      "type": "error"
    },
    {
      "inputs": [
        {
          "internalType": "address",
          "name": "account",
          "type": "address"
        }
      ],
      "name": "OwnableUnauthorizedAccount",
      "type": "error"
    },
    {
      "anonymous": false,
      "inputs": [
        {
          "indexed": true,
          "internalType": "address",
          "name": "owner",
          "type": "address"
        },
        {
          "indexed": true,
          "internalType": "address",
          "name": "approved",
          "type": "address"
        },
        {
          "indexed": true,
          "internalType": "uint256",
          "name": "tokenId",
          "type": "uint256"
        }
      ],
      "name": "Approval",
      "type": "event"
    },
    {
      "anonymous": false,
      "inputs": [
        {
          "indexed": true,
          "internalType": "address",
          "name": "owner",
          "type": "address"
        },
        {
          "indexed": true,
          "internalType": "address",
          "name": "operator",
          "type": "address"
        },
        {
          "indexed": false,
          "internalType": "bool",
          "name": "approved",
          "type": "bool"
        }
      ],
      "name": "ApprovalForAll",
      "type": "event"
    },
    {
      "anonymous": false,
      "inputs": [
        {
          "indexed": false,
          "internalType": "uint256",
          "name": "_fromTokenId",
          "type": "uint256"
        },
        {
          "indexed": false,
          "internalType": "uint256",
          "name": "_toTokenId",
          "type": "uint256"
        }
      ],
      "name": "BatchMetadataUpdate",
      "type": "event"
    },
    {
      "anonymous": false,
      "inputs": [
        {
          "indexed": false,
          "internalType": "uint256",
          "name": "_tokenId",
          "type": "uint256"
        }
      ],
      "name": "MetadataUpdate",
      "type": "event"
    },
    {
      "anonymous": false,
      "inputs": [
        {
          "indexed": true,
          "internalType": "address",
          "name": "previousOwner",
          "type": "address"
        },
        {
          "indexed": true,
          "internalType": "address",
          "name": "newOwner",
          "type": "address"
        }
      ],
      "name": "OwnershipTransferred",
      "type": "event"
    },
    {
      "anonymous": false,
      "inputs": [
        {
          "indexed": true,
          "internalType": "address",
          "name": "from",
          "type": "address"
        },
        {
          "indexed": true,
          "internalType": "address",
          "name": "to",
          "type": "address"
        },
        {
          "indexed": true,
          "internalType": "uint256",
          "name": "tokenId",
          "type": "uint256"
        }
      ],
      "name": "Transfer",
      "type": "event"
    },
    {
      "inputs": [
        {
          "internalType": "address",
          "name": "to",
          "type": "address"
        },
        {
          "internalType": "uint256",
          "name": "tokenId",
          "type": "uint256"
        }
      ],
      "name": "approve",
      "outputs": [],
      "stateMutability": "nonpayable",
      "type": "function"
    },
    {
      "inputs": [
        {
          "internalType": "address",
          "name": "owner",
          "type": "address"
        }
      ],
      "name": "balanceOf",
      "outputs": [
        {
          "internalType": "uint256",
          "name": "",
          "type": "uint256"
        }
      ],
      "stateMutability": "view",
      "type": "function"
    },
    {
      "inputs": [
        {
          "internalType": "uint256",
          "name": "_tokenId",
          "type": "uint256"
        }
      ],
      "name": "burn",
      "outputs": [],
      "stateMutability": "payable",
      "type": "function"
    },
    {
      "inputs": [],
      "name": "counter",
      "outputs": [
        {
          "internalType": "uint256",
          "name": "",
          "type": "uint256"
        }
      ],
      "stateMutability": "view",
      "type": "function"
    },
    {
      "inputs": [
        {
          "internalType": "uint256",
          "name": "tokenId",
          "type": "uint256"
        }
      ],
      "name": "getApproved",
      "outputs": [
        {
          "internalType": "address",
          "name": "",
          "type": "address"
        }
      ],
      "stateMutability": "view",
      "type": "function"
    },
    {
      "inputs": [],
      "name": "getListPrice",
      "outputs": [
        {
          "internalType": "uint256",
          "name": "",
          "type": "uint256"
        }
      ],
      "stateMutability": "view",
      "type": "function"
    },
    {
      "inputs": [
        {
          "internalType": "address",
          "name": "owner",
          "type": "address"
        },
        {
          "internalType": "address",
          "name": "operator",
          "type": "address"
        }
      ],
      "name": "isApprovedForAll",
      "outputs": [
        {
          "internalType": "bool",
          "name": "",
          "type": "bool"
        }
      ],
      "stateMutability": "view",
      "type": "function"
    },
    {
      "inputs": [
        {
          "internalType": "string",
          "name": "_uri",
          "type": "string"
        }
      ],
      "name": "mint",
      "outputs": [],
      "stateMutability": "payable",
      "type": "function"
    },
    {
      "inputs": [],
      "name": "name",
      "outputs": [
        {
          "internalType": "string",
          "name": "",
          "type": "string"
        }
      ],
      "stateMutability": "view",
      "type": "function"
    },
    {
      "inputs": [],
      "name": "owner",
      "outputs": [
        {
          "internalType": "address",
          "name": "",
          "type": "address"
        }
      ],
      "stateMutability": "view",
      "type": "function"
    },
    {
      "inputs": [
        {
          "internalType": "uint256",
          "name": "tokenId",
          "type": "uint256"
        }
      ],
      "name": "ownerOf",
      "outputs": [
        {
          "internalType": "address",
          "name": "",
          "type": "address"
        }
      ],
      "stateMutability": "view",
      "type": "function"
    },
    {
      "inputs": [],
      "name": "renounceOwnership",
      "outputs": [],
      "stateMutability": "nonpayable",
      "type": "function"
    },
    {
      "inputs": [
        {
          "internalType": "address",
          "name": "from",
          "type": "address"
        },
        {
          "internalType": "address",
          "name": "to",
          "type": "address"
        },
        {
          "internalType": "uint256",
          "name": "tokenId",
          "type": "uint256"
        }
      ],
      "name": "safeTransferFrom",
      "outputs": [],
      "stateMutability": "nonpayable",
      "type": "function"
    },
    {
      "inputs": [
        {
          "internalType": "address",
          "name": "from",
          "type": "address"
        },
        {
          "internalType": "address",
          "name": "to",
          "type": "address"
        },
        {
          "internalType": "uint256",
          "name": "tokenId",
          "type": "uint256"
        },
        {
          "internalType": "bytes",
          "name": "data",
          "type": "bytes"
        }
      ],
      "name": "safeTransferFrom",
      "outputs": [],
      "stateMutability": "nonpayable",
      "type": "function"
    },
    {
      "inputs": [
        {
          "internalType": "address",
          "name": "operator",
          "type": "address"
        },
        {
          "internalType": "bool",
          "name": "approved",
          "type": "bool"
        }
      ],
      "name": "setApprovalForAll",
      "outputs": [],
      "stateMutability": "nonpayable",
      "type": "function"
    },
    {
      "inputs": [
        {
          "internalType": "bytes4",
          "name": "interfaceId",
          "type": "bytes4"
        }
      ],
      "name": "supportsInterface",
      "outputs": [
        {
          "internalType": "bool",
          "name": "",
          "type": "bool"
        }
      ],
      "stateMutability": "view",
      "type": "function"
    },
    {
      "inputs": [],
      "name": "symbol",
      "outputs": [
        {
          "internalType": "string",
          "name": "",
          "type": "string"
        }
      ],
      "stateMutability": "view",
      "type": "function"
    },
    {
      "inputs": [
        {
          "internalType": "uint256",
          "name": "counter",
          "type": "uint256"
        }
      ],
      "name": "tokenOwner",
      "outputs": [
        {
          "internalType": "address",
          "name": "",
          "type": "address"
        }
      ],
      "stateMutability": "view",
      "type": "function"
    },
    {
      "inputs": [
        {
          "internalType": "uint256",
          "name": "tokenId",
          "type": "uint256"
        }
      ],
      "name": "tokenURI",
      "outputs": [
        {
          "internalType": "string",
          "name": "",
          "type": "string"
        }
      ],
      "stateMutability": "view",
      "type": "function"
    },
    {
      "inputs": [
        {
          "internalType": "address",
          "name": "from",
          "type": "address"
        },
        {
          "internalType": "address",
          "name": "to",
          "type": "address"
        },
        {
          "internalType": "uint256",
          "name": "tokenId",
          "type": "uint256"
        }
      ],
      "name": "transferFrom",
      "outputs": [],
      "stateMutability": "nonpayable",
      "type": "function"
    },
    {
      "inputs": [
        {
          "internalType": "address",
          "name": "newOwner",
          "type": "address"
        }
      ],
      "name": "transferOwnership",
      "outputs": [],
      "stateMutability": "nonpayable",
      "type": "function"
    }
  ],
  "bytecode": "0x6080604052655af3107a40006009553480156200001b57600080fd5b50336040518060400160405280600981526020017f5370696465726d616e00000000000000000000000000000000000000000000008152506040518060400160405280600681526020017f537069646572000000000000000000000000000000000000000000000000000081525081600090816200009a91906200047c565b508060019081620000ac91906200047c565b505050600073ffffffffffffffffffffffffffffffffffffffff168173ffffffffffffffffffffffffffffffffffffffff1603620001245760006040517f1e4fbdf70000000000000000000000000000000000000000000000000000000081526004016200011b9190620005a8565b60405180910390fd5b62000135816200013c60201b60201c565b50620005c5565b6000600760009054906101000a900473ffffffffffffffffffffffffffffffffffffffff16905081600760006101000a81548173ffffffffffffffffffffffffffffffffffffffff021916908373ffffffffffffffffffffffffffffffffffffffff1602179055508173ffffffffffffffffffffffffffffffffffffffff168173ffffffffffffffffffffffffffffffffffffffff167f8be0079c531659141344cd1fd0a4f28419497f9722a3daafe3b4186f6b6457e060405160405180910390a35050565b600081519050919050565b7f4e487b7100000000000000000000000000000000000000000000000000000000600052604160045260246000fd5b7f4e487b7100000000000000000000000000000000000000000000000000000000600052602260045260246000fd5b600060028204905060018216806200028457607f821691505b6020821081036200029a57620002996200023c565b5b50919050565b60008190508160005260206000209050919050565b60006020601f8301049050919050565b600082821b905092915050565b600060088302620003047fffffffffffffffffffffffffffffffffffffffffffffffffffffffffffffffff82620002c5565b620003108683620002c5565b95508019841693508086168417925050509392505050565b6000819050919050565b6000819050919050565b60006200035d62000357620003518462000328565b62000332565b62000328565b9050919050565b6000819050919050565b62000379836200033c565b62000391620003888262000364565b848454620002d2565b825550505050565b600090565b620003a862000399565b620003b58184846200036e565b505050565b5b81811015620003dd57620003d16000826200039e565b600181019050620003bb565b5050565b601f8211156200042c57620003f681620002a0565b6200040184620002b5565b8101602085101562000411578190505b620004296200042085620002b5565b830182620003ba565b50505b505050565b600082821c905092915050565b6000620004516000198460080262000431565b1980831691505092915050565b60006200046c83836200043e565b9150826002028217905092915050565b620004878262000202565b67ffffffffffffffff811115620004a357620004a26200020d565b5b620004af82546200026b565b620004bc828285620003e1565b600060209050601f831160018114620004f45760008415620004df578287015190505b620004eb85826200045e565b8655506200055b565b601f1984166200050486620002a0565b60005b828110156200052e5784890151825560018201915060208501945060208101905062000507565b868310156200054e57848901516200054a601f8916826200043e565b8355505b6001600288020188555050505b505050505050565b600073ffffffffffffffffffffffffffffffffffffffff82169050919050565b6000620005908262000563565b9050919050565b620005a28162000583565b82525050565b6000602082019050620005bf600083018462000597565b92915050565b612b0380620005d56000396000f3fe60806040526004361061012a5760003560e01c806368f1945f116100ab578063a22cb4651161006f578063a22cb465146103e5578063b88d4fde1461040e578063c87b56dd14610437578063d85d3d2714610474578063e985e9c514610490578063f2fde38b146104cd5761012a565b806368f1945f1461031057806370a082311461033b578063715018a6146103785780638da5cb5b1461038f57806395d89b41146103ba5761012a565b806323b872dd116100f257806323b872dd1461023a57806342842e0e1461026357806342966c681461028c57806361bc221a146102a85780636352211e146102d35761012a565b806301ffc9a71461012f57806306fdde031461016c578063081812fc14610197578063095ea7b3146101d45780631caaa487146101fd575b600080fd5b34801561013b57600080fd5b5061015660048036038101906101519190611ead565b6104f6565b6040516101639190611ef5565b60405180910390f35b34801561017857600080fd5b50610181610557565b60405161018e9190611fa0565b60405180910390f35b3480156101a357600080fd5b506101be60048036038101906101b99190611ff8565b6105e9565b6040516101cb9190612066565b60405180910390f35b3480156101e057600080fd5b506101fb60048036038101906101f691906120ad565b610605565b005b34801561020957600080fd5b50610224600480360381019061021f9190611ff8565b61061b565b6040516102319190612066565b60405180910390f35b34801561024657600080fd5b50610261600480360381019061025c91906120ed565b61064e565b005b34801561026f57600080fd5b5061028a600480360381019061028591906120ed565b610750565b005b6102a660048036038101906102a19190611ff8565b610770565b005b3480156102b457600080fd5b506102bd610866565b6040516102ca919061214f565b60405180910390f35b3480156102df57600080fd5b506102fa60048036038101906102f59190611ff8565b61086c565b6040516103079190612066565b60405180910390f35b34801561031c57600080fd5b5061032561087e565b604051610332919061214f565b60405180910390f35b34801561034757600080fd5b50610362600480360381019061035d919061216a565b610888565b60405161036f919061214f565b60405180910390f35b34801561038457600080fd5b5061038d610942565b005b34801561039b57600080fd5b506103a4610956565b6040516103b19190612066565b60405180910390f35b3480156103c657600080fd5b506103cf610980565b6040516103dc9190611fa0565b60405180910390f35b3480156103f157600080fd5b5061040c600480360381019061040791906121c3565b610a12565b005b34801561041a57600080fd5b5061043560048036038101906104309190612338565b610a28565b005b34801561044357600080fd5b5061045e60048036038101906104599190611ff8565b610a45565b60405161046b9190611fa0565b60405180910390f35b61048e6004803603810190610489919061241b565b610b58565b005b34801561049c57600080fd5b506104b760048036038101906104b29190612468565b610c6c565b6040516104c49190611ef5565b60405180910390f35b3480156104d957600080fd5b506104f460048036038101906104ef919061216a565b610d00565b005b6000634906490660e01b7bffffffffffffffffffffffffffffffffffffffffffffffffffffffff1916827bffffffffffffffffffffffffffffffffffffffffffffffffffffffff19161480610550575061054f82610d86565b5b9050919050565b606060008054610566906124d7565b80601f0160208091040260200160405190810160405280929190818152602001828054610592906124d7565b80156105df5780601f106105b4576101008083540402835291602001916105df565b820191906000526020600020905b8154815290600101906020018083116105c257829003601f168201915b5050505050905090565b60006105f482610e68565b506105fe82610ef0565b9050919050565b6106178282610612610f2d565b610f35565b5050565b600a6020528060005260406000206000915054906101000a900473ffffffffffffffffffffffffffffffffffffffff1681565b600073ffffffffffffffffffffffffffffffffffffffff168273ffffffffffffffffffffffffffffffffffffffff16036106c05760006040517f64a0ae920000000000000000000000000000000000000000000000000000000081526004016106b79190612066565b60405180910390fd5b60006106d483836106cf610f2d565b610f47565b90508373ffffffffffffffffffffffffffffffffffffffff168173ffffffffffffffffffffffffffffffffffffffff161461074a578382826040517f64283d7b00000000000000000000000000000000000000000000000000000000815260040161074193929190612508565b60405180910390fd5b50505050565b61076b83838360405180602001604052806000815250610a28565b505050565b3373ffffffffffffffffffffffffffffffffffffffff16600a600083815260200190815260200160002060009054906101000a900473ffffffffffffffffffffffffffffffffffffffff1673ffffffffffffffffffffffffffffffffffffffff1614610811576040517f08c379a0000000000000000000000000000000000000000000000000000000008152600401610808906125b1565b60405180910390fd5b61081a81611161565b3373ffffffffffffffffffffffffffffffffffffffff166108fc6009549081150290604051600060405180830381858888f19350505050158015610862573d6000803e3d6000fd5b5050565b60085481565b600061087782610e68565b9050919050565b6000600954905090565b60008073ffffffffffffffffffffffffffffffffffffffff168273ffffffffffffffffffffffffffffffffffffffff16036108fb5760006040517f89c62b640000000000000000000000000000000000000000000000000000000081526004016108f29190612066565b60405180910390fd5b600360008373ffffffffffffffffffffffffffffffffffffffff1673ffffffffffffffffffffffffffffffffffffffff168152602001908152602001600020549050919050565b61094a6111e7565b610954600061126e565b565b6000600760009054906101000a900473ffffffffffffffffffffffffffffffffffffffff16905090565b60606001805461098f906124d7565b80601f01602080910402602001604051908101604052809291908181526020018280546109bb906124d7565b8015610a085780601f106109dd57610100808354040283529160200191610a08565b820191906000526020600020905b8154815290600101906020018083116109eb57829003601f168201915b5050505050905090565b610a24610a1d610f2d565b8383611334565b5050565b610a3384848461064e565b610a3f848484846114a3565b50505050565b6060610a5082610e68565b506000600660008481526020019081526020016000208054610a71906124d7565b80601f0160208091040260200160405190810160405280929190818152602001828054610a9d906124d7565b8015610aea5780601f10610abf57610100808354040283529160200191610aea565b820191906000526020600020905b815481529060010190602001808311610acd57829003601f168201915b505050505090506000610afb61165a565b90506000815103610b10578192505050610b53565b600082511115610b45578082604051602001610b2d92919061260d565b60405160208183030381529060405292505050610b53565b610b4e84611671565b925050505b919050565b655af3107a40003414610ba0576040517f08c379a0000000000000000000000000000000000000000000000000000000008152600401610b979061267d565b60405180910390fd5b60086000815480929190610bb3906126cc565b9190505550610bc4336008546116da565b610c1460085483838080601f016020809104026020016040519081016040528093929190818152602001838380828437600081840152601f19601f820116905080830192505050505050506117d3565b33600a6000600854815260200190815260200160002060006101000a81548173ffffffffffffffffffffffffffffffffffffffff021916908373ffffffffffffffffffffffffffffffffffffffff1602179055505050565b6000600560008473ffffffffffffffffffffffffffffffffffffffff1673ffffffffffffffffffffffffffffffffffffffff16815260200190815260200160002060008373ffffffffffffffffffffffffffffffffffffffff1673ffffffffffffffffffffffffffffffffffffffff16815260200190815260200160002060009054906101000a900460ff16905092915050565b610d086111e7565b600073ffffffffffffffffffffffffffffffffffffffff168173ffffffffffffffffffffffffffffffffffffffff1603610d7a5760006040517f1e4fbdf7000000000000000000000000000000000000000000000000000000008152600401610d719190612066565b60405180910390fd5b610d838161126e565b50565b60007f80ac58cd000000000000000000000000000000000000000000000000000000007bffffffffffffffffffffffffffffffffffffffffffffffffffffffff1916827bffffffffffffffffffffffffffffffffffffffffffffffffffffffff19161480610e5157507f5b5e139f000000000000000000000000000000000000000000000000000000007bffffffffffffffffffffffffffffffffffffffffffffffffffffffff1916827bffffffffffffffffffffffffffffffffffffffffffffffffffffffff1916145b80610e615750610e608261182f565b5b9050919050565b600080610e7483611899565b9050600073ffffffffffffffffffffffffffffffffffffffff168173ffffffffffffffffffffffffffffffffffffffff1603610ee757826040517f7e273289000000000000000000000000000000000000000000000000000000008152600401610ede919061214f565b60405180910390fd5b80915050919050565b60006004600083815260200190815260200160002060009054906101000a900473ffffffffffffffffffffffffffffffffffffffff169050919050565b600033905090565b610f4283838360016118d6565b505050565b600080610f5384611899565b9050600073ffffffffffffffffffffffffffffffffffffffff168373ffffffffffffffffffffffffffffffffffffffff1614610f9557610f94818486611a9b565b5b600073ffffffffffffffffffffffffffffffffffffffff168173ffffffffffffffffffffffffffffffffffffffff161461102657610fd76000856000806118d6565b6001600360008373ffffffffffffffffffffffffffffffffffffffff1673ffffffffffffffffffffffffffffffffffffffff168152602001908152602001600020600082825403925050819055505b600073ffffffffffffffffffffffffffffffffffffffff168573ffffffffffffffffffffffffffffffffffffffff16146110a9576001600360008773ffffffffffffffffffffffffffffffffffffffff1673ffffffffffffffffffffffffffffffffffffffff168152602001908152602001600020600082825401925050819055505b846002600086815260200190815260200160002060006101000a81548173ffffffffffffffffffffffffffffffffffffffff021916908373ffffffffffffffffffffffffffffffffffffffff160217905550838573ffffffffffffffffffffffffffffffffffffffff168273ffffffffffffffffffffffffffffffffffffffff167fddf252ad1be2c89b69c2b068fc378daa952ba7f163c4a11628f55a4df523b3ef60405160405180910390a4809150509392505050565b60006111706000836000610f47565b9050600073ffffffffffffffffffffffffffffffffffffffff168173ffffffffffffffffffffffffffffffffffffffff16036111e357816040517f7e2732890000000000000000000000000000000000000000000000000000000081526004016111da919061214f565b60405180910390fd5b5050565b6111ef610f2d565b73ffffffffffffffffffffffffffffffffffffffff1661120d610956565b73ffffffffffffffffffffffffffffffffffffffff161461126c57611230610f2d565b6040517f118cdaa70000000000000000000000000000000000000000000000000000000081526004016112639190612066565b60405180910390fd5b565b6000600760009054906101000a900473ffffffffffffffffffffffffffffffffffffffff16905081600760006101000a81548173ffffffffffffffffffffffffffffffffffffffff021916908373ffffffffffffffffffffffffffffffffffffffff1602179055508173ffffffffffffffffffffffffffffffffffffffff168173ffffffffffffffffffffffffffffffffffffffff167f8be0079c531659141344cd1fd0a4f28419497f9722a3daafe3b4186f6b6457e060405160405180910390a35050565b600073ffffffffffffffffffffffffffffffffffffffff168273ffffffffffffffffffffffffffffffffffffffff16036113a557816040517f5b08ba1800000000000000000000000000000000000000000000000000000000815260040161139c9190612066565b60405180910390fd5b80600560008573ffffffffffffffffffffffffffffffffffffffff1673ffffffffffffffffffffffffffffffffffffffff16815260200190815260200160002060008473ffffffffffffffffffffffffffffffffffffffff1673ffffffffffffffffffffffffffffffffffffffff16815260200190815260200160002060006101000a81548160ff0219169083151502179055508173ffffffffffffffffffffffffffffffffffffffff168373ffffffffffffffffffffffffffffffffffffffff167f17307eab39ab6107e8899845ad3d59bd9653f200f220920489ca2b5937696c31836040516114969190611ef5565b60405180910390a3505050565b60008373ffffffffffffffffffffffffffffffffffffffff163b1115611654578273ffffffffffffffffffffffffffffffffffffffff1663150b7a026114e7610f2d565b8685856040518563ffffffff1660e01b81526004016115099493929190612769565b6020604051808303816000875af192505050801561154557506040513d601f19601f8201168201806040525081019061154291906127ca565b60015b6115c9573d8060008114611575576040519150601f19603f3d011682016040523d82523d6000602084013e61157a565b606091505b5060008151036115c157836040517f64a0ae920000000000000000000000000000000000000000000000000000000081526004016115b89190612066565b60405180910390fd5b805181602001fd5b63150b7a0260e01b7bffffffffffffffffffffffffffffffffffffffffffffffffffffffff1916817bffffffffffffffffffffffffffffffffffffffffffffffffffffffff19161461165257836040517f64a0ae920000000000000000000000000000000000000000000000000000000081526004016116499190612066565b60405180910390fd5b505b50505050565b606060405180602001604052806000815250905090565b606061167c82610e68565b50600061168761165a565b905060008151116116a757604051806020016040528060008152506116d2565b806116b184611b5f565b6040516020016116c292919061260d565b6040516020818303038152906040525b915050919050565b600073ffffffffffffffffffffffffffffffffffffffff168273ffffffffffffffffffffffffffffffffffffffff160361174c5760006040517f64a0ae920000000000000000000000000000000000000000000000000000000081526004016117439190612066565b60405180910390fd5b600061175a83836000610f47565b9050600073ffffffffffffffffffffffffffffffffffffffff168173ffffffffffffffffffffffffffffffffffffffff16146117ce5760006040517f73c6ac6e0000000000000000000000000000000000000000000000000000000081526004016117c59190612066565b60405180910390fd5b505050565b806006600084815260200190815260200160002090816117f391906129a3565b507ff8e1a15aba9398e019f0b49df1a4fde98ee17ae345cb5f6b5e2c27f5033e8ce782604051611823919061214f565b60405180910390a15050565b60007f01ffc9a7000000000000000000000000000000000000000000000000000000007bffffffffffffffffffffffffffffffffffffffffffffffffffffffff1916827bffffffffffffffffffffffffffffffffffffffffffffffffffffffff1916149050919050565b60006002600083815260200190815260200160002060009054906101000a900473ffffffffffffffffffffffffffffffffffffffff169050919050565b808061190f5750600073ffffffffffffffffffffffffffffffffffffffff168273ffffffffffffffffffffffffffffffffffffffff1614155b15611a4357600061191f84610e68565b9050600073ffffffffffffffffffffffffffffffffffffffff168373ffffffffffffffffffffffffffffffffffffffff161415801561198a57508273ffffffffffffffffffffffffffffffffffffffff168173ffffffffffffffffffffffffffffffffffffffff1614155b801561199d575061199b8184610c6c565b155b156119df57826040517fa9fbf51f0000000000000000000000000000000000000000000000000000000081526004016119d69190612066565b60405180910390fd5b8115611a4157838573ffffffffffffffffffffffffffffffffffffffff168273ffffffffffffffffffffffffffffffffffffffff167f8c5be1e5ebec7d5bd14f71427d1e84f3dd0314c0f7b2291e5b200ac8c7c3b92560405160405180910390a45b505b836004600085815260200190815260200160002060006101000a81548173ffffffffffffffffffffffffffffffffffffffff021916908373ffffffffffffffffffffffffffffffffffffffff16021790555050505050565b611aa6838383611c2d565b611b5a57600073ffffffffffffffffffffffffffffffffffffffff168373ffffffffffffffffffffffffffffffffffffffff1603611b1b57806040517f7e273289000000000000000000000000000000000000000000000000000000008152600401611b12919061214f565b60405180910390fd5b81816040517f177e802f000000000000000000000000000000000000000000000000000000008152600401611b51929190612a75565b60405180910390fd5b505050565b606060006001611b6e84611cee565b01905060008167ffffffffffffffff811115611b8d57611b8c61220d565b5b6040519080825280601f01601f191660200182016040528015611bbf5781602001600182028036833780820191505090505b509050600082602001820190505b600115611c22578080600190039150507f3031323334353637383961626364656600000000000000000000000000000000600a86061a8153600a8581611c1657611c15612a9e565b5b04945060008503611bcd575b819350505050919050565b60008073ffffffffffffffffffffffffffffffffffffffff168373ffffffffffffffffffffffffffffffffffffffff1614158015611ce557508273ffffffffffffffffffffffffffffffffffffffff168473ffffffffffffffffffffffffffffffffffffffff161480611ca65750611ca58484610c6c565b5b80611ce457508273ffffffffffffffffffffffffffffffffffffffff16611ccc83610ef0565b73ffffffffffffffffffffffffffffffffffffffff16145b5b90509392505050565b600080600090507a184f03e93ff9f4daa797ed6e38ed64bf6a1f0100000000000000008310611d4c577a184f03e93ff9f4daa797ed6e38ed64bf6a1f0100000000000000008381611d4257611d41612a9e565b5b0492506040810190505b6d04ee2d6d415b85acef81000000008310611d89576d04ee2d6d415b85acef81000000008381611d7f57611d7e612a9e565b5b0492506020810190505b662386f26fc100008310611db857662386f26fc100008381611dae57611dad612a9e565b5b0492506010810190505b6305f5e1008310611de1576305f5e1008381611dd757611dd6612a9e565b5b0492506008810190505b6127108310611e06576127108381611dfc57611dfb612a9e565b5b0492506004810190505b60648310611e295760648381611e1f57611e1e612a9e565b5b0492506002810190505b600a8310611e38576001810190505b80915050919050565b6000604051905090565b600080fd5b600080fd5b60007fffffffff0000000000000000000000000000000000000000000000000000000082169050919050565b611e8a81611e55565b8114611e9557600080fd5b50565b600081359050611ea781611e81565b92915050565b600060208284031215611ec357611ec2611e4b565b5b6000611ed184828501611e98565b91505092915050565b60008115159050919050565b611eef81611eda565b82525050565b6000602082019050611f0a6000830184611ee6565b92915050565b600081519050919050565b600082825260208201905092915050565b60005b83811015611f4a578082015181840152602081019050611f2f565b60008484015250505050565b6000601f19601f8301169050919050565b6000611f7282611f10565b611f7c8185611f1b565b9350611f8c818560208601611f2c565b611f9581611f56565b840191505092915050565b60006020820190508181036000830152611fba8184611f67565b905092915050565b6000819050919050565b611fd581611fc2565b8114611fe057600080fd5b50565b600081359050611ff281611fcc565b92915050565b60006020828403121561200e5761200d611e4b565b5b600061201c84828501611fe3565b91505092915050565b600073ffffffffffffffffffffffffffffffffffffffff82169050919050565b600061205082612025565b9050919050565b61206081612045565b82525050565b600060208201905061207b6000830184612057565b92915050565b61208a81612045565b811461209557600080fd5b50565b6000813590506120a781612081565b92915050565b600080604083850312156120c4576120c3611e4b565b5b60006120d285828601612098565b92505060206120e385828601611fe3565b9150509250929050565b60008060006060848603121561210657612105611e4b565b5b600061211486828701612098565b935050602061212586828701612098565b925050604061213686828701611fe3565b9150509250925092565b61214981611fc2565b82525050565b60006020820190506121646000830184612140565b92915050565b6000602082840312156121805761217f611e4b565b5b600061218e84828501612098565b91505092915050565b6121a081611eda565b81146121ab57600080fd5b50565b6000813590506121bd81612197565b92915050565b600080604083850312156121da576121d9611e4b565b5b60006121e885828601612098565b92505060206121f9858286016121ae565b9150509250929050565b600080fd5b600080fd5b7f4e487b7100000000000000000000000000000000000000000000000000000000600052604160045260246000fd5b61224582611f56565b810181811067ffffffffffffffff821117156122645761226361220d565b5b80604052505050565b6000612277611e41565b9050612283828261223c565b919050565b600067ffffffffffffffff8211156122a3576122a261220d565b5b6122ac82611f56565b9050602081019050919050565b82818337600083830152505050565b60006122db6122d684612288565b61226d565b9050828152602081018484840111156122f7576122f6612208565b5b6123028482856122b9565b509392505050565b600082601f83011261231f5761231e612203565b5b813561232f8482602086016122c8565b91505092915050565b6000806000806080858703121561235257612351611e4b565b5b600061236087828801612098565b945050602061237187828801612098565b935050604061238287828801611fe3565b925050606085013567ffffffffffffffff8111156123a3576123a2611e50565b5b6123af8782880161230a565b91505092959194509250565b600080fd5b600080fd5b60008083601f8401126123db576123da612203565b5b8235905067ffffffffffffffff8111156123f8576123f76123bb565b5b602083019150836001820283011115612414576124136123c0565b5b9250929050565b6000806020838503121561243257612431611e4b565b5b600083013567ffffffffffffffff8111156124505761244f611e50565b5b61245c858286016123c5565b92509250509250929050565b6000806040838503121561247f5761247e611e4b565b5b600061248d85828601612098565b925050602061249e85828601612098565b9150509250929050565b7f4e487b7100000000000000000000000000000000000000000000000000000000600052602260045260246000fd5b600060028204905060018216806124ef57607f821691505b602082108103612502576125016124a8565b5b50919050565b600060608201905061251d6000830186612057565b61252a6020830185612140565b6125376040830184612057565b949350505050565b7f596f7520617265206e6f7420746865206f776e6572206f6620636f6e7472616360008201527f7400000000000000000000000000000000000000000000000000000000000000602082015250565b600061259b602183611f1b565b91506125a68261253f565b604082019050919050565b600060208201905081810360008301526125ca8161258e565b9050919050565b600081905092915050565b60006125e782611f10565b6125f181856125d1565b9350612601818560208601611f2c565b80840191505092915050565b600061261982856125dc565b915061262582846125dc565b91508190509392505050565b7f706c6561736520656e74657220636f727265637420616d6f756e740000000000600082015250565b6000612667601b83611f1b565b915061267282612631565b602082019050919050565b600060208201905081810360008301526126968161265a565b9050919050565b7f4e487b7100000000000000000000000000000000000000000000000000000000600052601160045260246000fd5b60006126d782611fc2565b91507fffffffffffffffffffffffffffffffffffffffffffffffffffffffffffffffff82036127095761270861269d565b5b600182019050919050565b600081519050919050565b600082825260208201905092915050565b600061273b82612714565b612745818561271f565b9350612755818560208601611f2c565b61275e81611f56565b840191505092915050565b600060808201905061277e6000830187612057565b61278b6020830186612057565b6127986040830185612140565b81810360608301526127aa8184612730565b905095945050505050565b6000815190506127c481611e81565b92915050565b6000602082840312156127e0576127df611e4b565b5b60006127ee848285016127b5565b91505092915050565b60008190508160005260206000209050919050565b60006020601f8301049050919050565b600082821b905092915050565b6000600883026128597fffffffffffffffffffffffffffffffffffffffffffffffffffffffffffffffff8261281c565b612863868361281c565b95508019841693508086168417925050509392505050565b6000819050919050565b60006128a061289b61289684611fc2565b61287b565b611fc2565b9050919050565b6000819050919050565b6128ba83612885565b6128ce6128c6826128a7565b848454612829565b825550505050565b600090565b6128e36128d6565b6128ee8184846128b1565b505050565b5b81811015612912576129076000826128db565b6001810190506128f4565b5050565b601f82111561295757612928816127f7565b6129318461280c565b81016020851015612940578190505b61295461294c8561280c565b8301826128f3565b50505b505050565b600082821c905092915050565b600061297a6000198460080261295c565b1980831691505092915050565b60006129938383612969565b9150826002028217905092915050565b6129ac82611f10565b67ffffffffffffffff8111156129c5576129c461220d565b5b6129cf82546124d7565b6129da828285612916565b600060209050601f831160018114612a0d57600084156129fb578287015190505b612a058582612987565b865550612a6d565b601f198416612a1b866127f7565b60005b82811015612a4357848901518255600182019150602085019450602081019050612a1e565b86831015612a605784890151612a5c601f891682612969565b8355505b6001600288020188555050505b505050505050565b6000604082019050612a8a6000830185612057565b612a976020830184612140565b9392505050565b7f4e487b7100000000000000000000000000000000000000000000000000000000600052601260045260246000fdfea26469706673582212208fbbc0cc900acdacc2fddb423794c5cac2ed1c1ba1998c45fd3c381b09adcf0464736f6c63430008180033",
  "linkReferences": {},
  "deployedLinkReferences": {}
}