{
  "_format": "hh-sol-artifact-1",
  "contractName": "nft",
  "sourceName": "contracts/nft.sol",
  "abi": [
    {
      "inputs": [],
      "stateMutability": "nonpayable",
      "type": "constructor"
    },
    {
      "inputs": [
        {
          "internalType": "address",
          "name": "sender",
          "type": "address"
        },
        {
          "internalType": "uint256",
          "name": "tokenId",
          "type": "uint256"
        },
        {
          "internalType": "address",
          "name": "owner",
          "type": "address"
        }
      ],
      "name": "ERC721IncorrectOwner",
      "type": "error"
    },
    {
      "inputs": [
        {
          "internalType": "address",
          "name": "operator",
          "type": "address"
        },
        {
          "internalType": "uint256",
          "name": "tokenId",
          "type": "uint256"
        }
      ],
      "name": "ERC721InsufficientApproval",
      "type": "error"
    },
    {
      "inputs": [
        {
          "internalType": "address",
          "name": "approver",
          "type": "address"
        }
      ],
      "name": "ERC721InvalidApprover",
      "type": "error"
    },
    {
      "inputs": [
        {
          "internalType": "address",
          "name": "operator",
          "type": "address"
        }
      ],
      "name": "ERC721InvalidOperator",
      "type": "error"
    },
    {
      "inputs": [
        {
          "internalType": "address",
          "name": "owner",
          "type": "address"
        }
      ],
      "name": "ERC721InvalidOwner",
      "type": "error"
    },
    {
      "inputs": [
        {
          "internalType": "address",
          "name": "receiver",
          "type": "address"
        }
      ],
      "name": "ERC721InvalidReceiver",
      "type": "error"
    },
    {
      "inputs": [
        {
          "internalType": "address",
          "name": "sender",
          "type": "address"
        }
      ],
      "name": "ERC721InvalidSender",
      "type": "error"
    },
    {
      "inputs": [
        {
          "internalType": "uint256",
          "name": "tokenId",
          "type": "uint256"
        }
      ],
      "name": "ERC721NonexistentToken",
      "type": "error"
    },
    {
      "inputs": [
        {
          "internalType": "address",
          "name": "owner",
          "type": "address"
        }
      ],
      "name": "OwnableInvalidOwner",
      "type": "error"
    },
    {
      "inputs": [
        {
          "internalType": "address",
          "name": "account",
          "type": "address"
        }
      ],
      "name": "OwnableUnauthorizedAccount",
      "type": "error"
    },
    {
      "anonymous": false,
      "inputs": [
        {
          "indexed": true,
          "internalType": "address",
          "name": "owner",
          "type": "address"
        },
        {
          "indexed": true,
          "internalType": "address",
          "name": "approved",
          "type": "address"
        },
        {
          "indexed": true,
          "internalType": "uint256",
          "name": "tokenId",
          "type": "uint256"
        }
      ],
      "name": "Approval",
      "type": "event"
    },
    {
      "anonymous": false,
      "inputs": [
        {
          "indexed": true,
          "internalType": "address",
          "name": "owner",
          "type": "address"
        },
        {
          "indexed": true,
          "internalType": "address",
          "name": "operator",
          "type": "address"
        },
        {
          "indexed": false,
          "internalType": "bool",
          "name": "approved",
          "type": "bool"
        }
      ],
      "name": "ApprovalForAll",
      "type": "event"
    },
    {
      "anonymous": false,
      "inputs": [
        {
          "indexed": false,
          "internalType": "uint256",
          "name": "_fromTokenId",
          "type": "uint256"
        },
        {
          "indexed": false,
          "internalType": "uint256",
          "name": "_toTokenId",
          "type": "uint256"
        }
      ],
      "name": "BatchMetadataUpdate",
      "type": "event"
    },
    {
      "anonymous": false,
      "inputs": [
        {
          "indexed": false,
          "internalType": "uint256",
          "name": "_tokenId",
          "type": "uint256"
        }
      ],
      "name": "MetadataUpdate",
      "type": "event"
    },
    {
      "anonymous": false,
      "inputs": [
        {
          "indexed": true,
          "internalType": "address",
          "name": "previousOwner",
          "type": "address"
        },
        {
          "indexed": true,
          "internalType": "address",
          "name": "newOwner",
          "type": "address"
        }
      ],
      "name": "OwnershipTransferred",
      "type": "event"
    },
    {
      "anonymous": false,
      "inputs": [
        {
          "indexed": true,
          "internalType": "address",
          "name": "from",
          "type": "address"
        },
        {
          "indexed": true,
          "internalType": "address",
          "name": "to",
          "type": "address"
        },
        {
          "indexed": true,
          "internalType": "uint256",
          "name": "tokenId",
          "type": "uint256"
        }
      ],
      "name": "Transfer",
      "type": "event"
    },
    {
      "inputs": [],
      "name": "Price",
      "outputs": [
        {
          "internalType": "uint256",
          "name": "",
          "type": "uint256"
        }
      ],
      "stateMutability": "view",
      "type": "function"
    },
    {
      "inputs": [
        {
          "internalType": "address",
          "name": "to",
          "type": "address"
        },
        {
          "internalType": "uint256",
          "name": "tokenId",
          "type": "uint256"
        }
      ],
      "name": "approve",
      "outputs": [],
      "stateMutability": "nonpayable",
      "type": "function"
    },
    {
      "inputs": [
        {
          "internalType": "address",
          "name": "owner",
          "type": "address"
        }
      ],
      "name": "balanceOf",
      "outputs": [
        {
          "internalType": "uint256",
          "name": "",
          "type": "uint256"
        }
      ],
      "stateMutability": "view",
      "type": "function"
    },
    {
      "inputs": [
        {
          "internalType": "uint256",
          "name": "_tokenId",
          "type": "uint256"
        }
      ],
      "name": "burn",
      "outputs": [],
      "stateMutability": "payable",
      "type": "function"
    },
    {
      "inputs": [],
      "name": "counter",
      "outputs": [
        {
          "internalType": "uint256",
          "name": "",
          "type": "uint256"
        }
      ],
      "stateMutability": "view",
      "type": "function"
    },
    {
      "inputs": [
        {
          "internalType": "uint256",
          "name": "tokenId",
          "type": "uint256"
        }
      ],
      "name": "getApproved",
      "outputs": [
        {
          "internalType": "address",
          "name": "",
          "type": "address"
        }
      ],
      "stateMutability": "view",
      "type": "function"
    },
    {
      "inputs": [],
      "name": "getListPrice",
      "outputs": [
        {
          "internalType": "uint256",
          "name": "",
          "type": "uint256"
        }
      ],
      "stateMutability": "view",
      "type": "function"
    },
    {
      "inputs": [
        {
          "internalType": "address",
          "name": "owner",
          "type": "address"
        },
        {
          "internalType": "address",
          "name": "operator",
          "type": "address"
        }
      ],
      "name": "isApprovedForAll",
      "outputs": [
        {
          "internalType": "bool",
          "name": "",
          "type": "bool"
        }
      ],
      "stateMutability": "view",
      "type": "function"
    },
    {
      "inputs": [
        {
          "internalType": "string",
          "name": "_uri",
          "type": "string"
        }
      ],
      "name": "mint",
      "outputs": [],
      "stateMutability": "payable",
      "type": "function"
    },
    {
      "inputs": [],
      "name": "name",
      "outputs": [
        {
          "internalType": "string",
          "name": "",
          "type": "string"
        }
      ],
      "stateMutability": "view",
      "type": "function"
    },
    {
      "inputs": [],
      "name": "owner",
      "outputs": [
        {
          "internalType": "address",
          "name": "",
          "type": "address"
        }
      ],
      "stateMutability": "view",
      "type": "function"
    },
    {
      "inputs": [
        {
          "internalType": "uint256",
          "name": "tokenId",
          "type": "uint256"
        }
      ],
      "name": "ownerOf",
      "outputs": [
        {
          "internalType": "address",
          "name": "",
          "type": "address"
        }
      ],
      "stateMutability": "view",
      "type": "function"
    },
    {
      "inputs": [],
      "name": "renounceOwnership",
      "outputs": [],
      "stateMutability": "nonpayable",
      "type": "function"
    },
    {
      "inputs": [
        {
          "internalType": "address",
          "name": "from",
          "type": "address"
        },
        {
          "internalType": "address",
          "name": "to",
          "type": "address"
        },
        {
          "internalType": "uint256",
          "name": "tokenId",
          "type": "uint256"
        }
      ],
      "name": "safeTransferFrom",
      "outputs": [],
      "stateMutability": "nonpayable",
      "type": "function"
    },
    {
      "inputs": [
        {
          "internalType": "address",
          "name": "from",
          "type": "address"
        },
        {
          "internalType": "address",
          "name": "to",
          "type": "address"
        },
        {
          "internalType": "uint256",
          "name": "tokenId",
          "type": "uint256"
        },
        {
          "internalType": "bytes",
          "name": "data",
          "type": "bytes"
        }
      ],
      "name": "safeTransferFrom",
      "outputs": [],
      "stateMutability": "nonpayable",
      "type": "function"
    },
    {
      "inputs": [
        {
          "internalType": "address",
          "name": "operator",
          "type": "address"
        },
        {
          "internalType": "bool",
          "name": "approved",
          "type": "bool"
        }
      ],
      "name": "setApprovalForAll",
      "outputs": [],
      "stateMutability": "nonpayable",
      "type": "function"
    },
    {
      "inputs": [
        {
          "internalType": "bytes4",
          "name": "interfaceId",
          "type": "bytes4"
        }
      ],
      "name": "supportsInterface",
      "outputs": [
        {
          "internalType": "bool",
          "name": "",
          "type": "bool"
        }
      ],
      "stateMutability": "view",
      "type": "function"
    },
    {
      "inputs": [],
      "name": "symbol",
      "outputs": [
        {
          "internalType": "string",
          "name": "",
          "type": "string"
        }
      ],
      "stateMutability": "view",
      "type": "function"
    },
    {
      "inputs": [
        {
          "internalType": "uint256",
          "name": "",
          "type": "uint256"
        }
      ],
      "name": "tokenOwner",
      "outputs": [
        {
          "internalType": "address",
          "name": "",
          "type": "address"
        }
      ],
      "stateMutability": "view",
      "type": "function"
    },
    {
      "inputs": [
        {
          "internalType": "uint256",
          "name": "tokenId",
          "type": "uint256"
        }
      ],
      "name": "tokenURI",
      "outputs": [
        {
          "internalType": "string",
          "name": "",
          "type": "string"
        }
      ],
      "stateMutability": "view",
      "type": "function"
    },
    {
      "inputs": [],
      "name": "totalSupply",
      "outputs": [
        {
          "internalType": "uint256",
          "name": "",
          "type": "uint256"
        }
      ],
      "stateMutability": "view",
      "type": "function"
    },
    {
      "inputs": [
        {
          "internalType": "address",
          "name": "from",
          "type": "address"
        },
        {
          "internalType": "address",
          "name": "to",
          "type": "address"
        },
        {
          "internalType": "uint256",
          "name": "tokenId",
          "type": "uint256"
        }
      ],
      "name": "transferFrom",
      "outputs": [],
      "stateMutability": "nonpayable",
      "type": "function"
    },
    {
      "inputs": [
        {
          "internalType": "address",
          "name": "newOwner",
          "type": "address"
        }
      ],
      "name": "transferOwnership",
      "outputs": [],
      "stateMutability": "nonpayable",
      "type": "function"
    }
  ],
  "bytecode": "0x608060405266038d7ea4c68000600a553480156200001c57600080fd5b50336040518060400160405280600981526020017f5370696465726d616e00000000000000000000000000000000000000000000008152506040518060400160405280600681526020017f537069646572000000000000000000000000000000000000000000000000000081525081600090816200009b91906200047d565b508060019081620000ad91906200047d565b505050600073ffffffffffffffffffffffffffffffffffffffff168173ffffffffffffffffffffffffffffffffffffffff1603620001255760006040517f1e4fbdf70000000000000000000000000000000000000000000000000000000081526004016200011c9190620005a9565b60405180910390fd5b62000136816200013d60201b60201c565b50620005c6565b6000600760009054906101000a900473ffffffffffffffffffffffffffffffffffffffff16905081600760006101000a81548173ffffffffffffffffffffffffffffffffffffffff021916908373ffffffffffffffffffffffffffffffffffffffff1602179055508173ffffffffffffffffffffffffffffffffffffffff168173ffffffffffffffffffffffffffffffffffffffff167f8be0079c531659141344cd1fd0a4f28419497f9722a3daafe3b4186f6b6457e060405160405180910390a35050565b600081519050919050565b7f4e487b7100000000000000000000000000000000000000000000000000000000600052604160045260246000fd5b7f4e487b7100000000000000000000000000000000000000000000000000000000600052602260045260246000fd5b600060028204905060018216806200028557607f821691505b6020821081036200029b576200029a6200023d565b5b50919050565b60008190508160005260206000209050919050565b60006020601f8301049050919050565b600082821b905092915050565b600060088302620003057fffffffffffffffffffffffffffffffffffffffffffffffffffffffffffffffff82620002c6565b620003118683620002c6565b95508019841693508086168417925050509392505050565b6000819050919050565b6000819050919050565b60006200035e62000358620003528462000329565b62000333565b62000329565b9050919050565b6000819050919050565b6200037a836200033d565b62000392620003898262000365565b848454620002d3565b825550505050565b600090565b620003a96200039a565b620003b68184846200036f565b505050565b5b81811015620003de57620003d26000826200039f565b600181019050620003bc565b5050565b601f8211156200042d57620003f781620002a1565b6200040284620002b6565b8101602085101562000412578190505b6200042a6200042185620002b6565b830182620003bb565b50505b505050565b600082821c905092915050565b6000620004526000198460080262000432565b1980831691505092915050565b60006200046d83836200043f565b9150826002028217905092915050565b620004888262000203565b67ffffffffffffffff811115620004a457620004a36200020e565b5b620004b082546200026c565b620004bd828285620003e2565b600060209050601f831160018114620004f55760008415620004e0578287015190505b620004ec85826200045f565b8655506200055c565b601f1984166200050586620002a1565b60005b828110156200052f5784890151825560018201915060208501945060208101905062000508565b868310156200054f57848901516200054b601f8916826200043f565b8355505b6001600288020188555050505b505050505050565b600073ffffffffffffffffffffffffffffffffffffffff82169050919050565b6000620005918262000564565b9050919050565b620005a38162000584565b82525050565b6000602082019050620005c0600083018462000598565b92915050565b612e2c80620005d66000396000f3fe6080604052600436106101405760003560e01c806368f1945f116100b6578063a22cb4651161006f578063a22cb46514610451578063b88d4fde1461047a578063c87b56dd146104a3578063d85d3d27146104e0578063e985e9c5146104fc578063f2fde38b1461053957610140565b806368f1945f1461035157806370a082311461037c578063715018a6146103b95780638da5cb5b146103d057806395d89b41146103fb5780639dfde2011461042657610140565b80631caaa487116101085780631caaa4871461023e57806323b872dd1461027b57806342842e0e146102a457806342966c68146102cd57806361bc221a146102e95780636352211e1461031457610140565b806301ffc9a71461014557806306fdde0314610182578063081812fc146101ad578063095ea7b3146101ea57806318160ddd14610213575b600080fd5b34801561015157600080fd5b5061016c60048036038101906101679190611faf565b610562565b6040516101799190611ff7565b60405180910390f35b34801561018e57600080fd5b506101976105c3565b6040516101a491906120a2565b60405180910390f35b3480156101b957600080fd5b506101d460048036038101906101cf91906120fa565b610655565b6040516101e19190612168565b60405180910390f35b3480156101f657600080fd5b50610211600480360381019061020c91906121af565b610671565b005b34801561021f57600080fd5b50610228610687565b60405161023591906121fe565b60405180910390f35b34801561024a57600080fd5b50610265600480360381019061026091906120fa565b61068d565b6040516102729190612168565b60405180910390f35b34801561028757600080fd5b506102a2600480360381019061029d9190612219565b6106c0565b005b3480156102b057600080fd5b506102cb60048036038101906102c69190612219565b6107c2565b005b6102e760048036038101906102e291906120fa565b6107e2565b005b3480156102f557600080fd5b506102fe6108f5565b60405161030b91906121fe565b60405180910390f35b34801561032057600080fd5b5061033b600480360381019061033691906120fa565b6108fb565b6040516103489190612168565b60405180910390f35b34801561035d57600080fd5b5061036661090d565b60405161037391906121fe565b60405180910390f35b34801561038857600080fd5b506103a3600480360381019061039e919061226c565b610917565b6040516103b091906121fe565b60405180910390f35b3480156103c557600080fd5b506103ce6109d1565b005b3480156103dc57600080fd5b506103e56109e5565b6040516103f29190612168565b60405180910390f35b34801561040757600080fd5b50610410610a0f565b60405161041d91906120a2565b60405180910390f35b34801561043257600080fd5b5061043b610aa1565b60405161044891906121fe565b60405180910390f35b34801561045d57600080fd5b50610478600480360381019061047391906122c5565b610af5565b005b34801561048657600080fd5b506104a1600480360381019061049c919061243a565b610b0b565b005b3480156104af57600080fd5b506104ca60048036038101906104c591906120fa565b610b28565b6040516104d791906120a2565b60405180910390f35b6104fa60048036038101906104f5919061251d565b610c3b565b005b34801561050857600080fd5b50610523600480360381019061051e919061256a565b610d6e565b6040516105309190611ff7565b60405180910390f35b34801561054557600080fd5b50610560600480360381019061055b919061226c565b610e02565b005b6000634906490660e01b7bffffffffffffffffffffffffffffffffffffffffffffffffffffffff1916827bffffffffffffffffffffffffffffffffffffffffffffffffffffffff191614806105bc57506105bb82610e88565b5b9050919050565b6060600080546105d2906125d9565b80601f01602080910402602001604051908101604052809291908181526020018280546105fe906125d9565b801561064b5780601f106106205761010080835404028352916020019161064b565b820191906000526020600020905b81548152906001019060200180831161062e57829003601f168201915b5050505050905090565b600061066082610f6a565b5061066a82610ff2565b9050919050565b610683828261067e61102f565b611037565b5050565b60095481565b600b6020528060005260406000206000915054906101000a900473ffffffffffffffffffffffffffffffffffffffff1681565b600073ffffffffffffffffffffffffffffffffffffffff168273ffffffffffffffffffffffffffffffffffffffff16036107325760006040517f64a0ae920000000000000000000000000000000000000000000000000000000081526004016107299190612168565b60405180910390fd5b6000610746838361074161102f565b611049565b90508373ffffffffffffffffffffffffffffffffffffffff168173ffffffffffffffffffffffffffffffffffffffff16146107bc578382826040517f64283d7b0000000000000000000000000000000000000000000000000000000081526004016107b39392919061260a565b60405180910390fd5b50505050565b6107dd83838360405180602001604052806000815250610b0b565b505050565b3373ffffffffffffffffffffffffffffffffffffffff16600b600083815260200190815260200160002060009054906101000a900473ffffffffffffffffffffffffffffffffffffffff1673ffffffffffffffffffffffffffffffffffffffff1614610883576040517f08c379a000000000000000000000000000000000000000000000000000000000815260040161087a906126b3565b60405180910390fd5b6009600081548092919061089690612702565b91905055506108a481611263565b3373ffffffffffffffffffffffffffffffffffffffff166108fc6108c6610aa1565b9081150290604051600060405180830381858888f193505050501580156108f1573d6000803e3d6000fd5b5050565b60085481565b600061090682610f6a565b9050919050565b6000600a54905090565b60008073ffffffffffffffffffffffffffffffffffffffff168273ffffffffffffffffffffffffffffffffffffffff160361098a5760006040517f89c62b640000000000000000000000000000000000000000000000000000000081526004016109819190612168565b60405180910390fd5b600360008373ffffffffffffffffffffffffffffffffffffffff1673ffffffffffffffffffffffffffffffffffffffff168152602001908152602001600020549050919050565b6109d96112e9565b6109e36000611370565b565b6000600760009054906101000a900473ffffffffffffffffffffffffffffffffffffffff16905090565b606060018054610a1e906125d9565b80601f0160208091040260200160405190810160405280929190818152602001828054610a4a906125d9565b8015610a975780601f10610a6c57610100808354040283529160200191610a97565b820191906000526020600020905b815481529060010190602001808311610a7a57829003601f168201915b5050505050905090565b60008060095403610aba57655af3107a40009050610af2565b6000611f406002600954610ace919061286b565b670de0b6b3a7640000610ae191906128b6565b610aeb9190612927565b9050809150505b90565b610b07610b0061102f565b8383611436565b5050565b610b168484846106c0565b610b22848484846115a5565b50505050565b6060610b3382610f6a565b506000600660008481526020019081526020016000208054610b54906125d9565b80601f0160208091040260200160405190810160405280929190818152602001828054610b80906125d9565b8015610bcd5780601f10610ba257610100808354040283529160200191610bcd565b820191906000526020600020905b815481529060010190602001808311610bb057829003601f168201915b505050505090506000610bde61175c565b90506000815103610bf3578192505050610c36565b600082511115610c28578082604051602001610c10929190612994565b60405160208183030381529060405292505050610c36565b610c3184611773565b925050505b919050565b6000610c45610aa1565b9050803414610c89576040517f08c379a0000000000000000000000000000000000000000000000000000000008152600401610c8090612a04565b60405180910390fd5b60086000815480929190610c9c90612a24565b919050555060096000815480929190610cb490612a24565b9190505550610cc5336008546117dc565b610d1560085484848080601f016020809104026020016040519081016040528093929190818152602001838380828437600081840152601f19601f820116905080830192505050505050506118d5565b33600b6000600854815260200190815260200160002060006101000a81548173ffffffffffffffffffffffffffffffffffffffff021916908373ffffffffffffffffffffffffffffffffffffffff160217905550505050565b6000600560008473ffffffffffffffffffffffffffffffffffffffff1673ffffffffffffffffffffffffffffffffffffffff16815260200190815260200160002060008373ffffffffffffffffffffffffffffffffffffffff1673ffffffffffffffffffffffffffffffffffffffff16815260200190815260200160002060009054906101000a900460ff16905092915050565b610e0a6112e9565b600073ffffffffffffffffffffffffffffffffffffffff168173ffffffffffffffffffffffffffffffffffffffff1603610e7c5760006040517f1e4fbdf7000000000000000000000000000000000000000000000000000000008152600401610e739190612168565b60405180910390fd5b610e8581611370565b50565b60007f80ac58cd000000000000000000000000000000000000000000000000000000007bffffffffffffffffffffffffffffffffffffffffffffffffffffffff1916827bffffffffffffffffffffffffffffffffffffffffffffffffffffffff19161480610f5357507f5b5e139f000000000000000000000000000000000000000000000000000000007bffffffffffffffffffffffffffffffffffffffffffffffffffffffff1916827bffffffffffffffffffffffffffffffffffffffffffffffffffffffff1916145b80610f635750610f6282611931565b5b9050919050565b600080610f768361199b565b9050600073ffffffffffffffffffffffffffffffffffffffff168173ffffffffffffffffffffffffffffffffffffffff1603610fe957826040517f7e273289000000000000000000000000000000000000000000000000000000008152600401610fe091906121fe565b60405180910390fd5b80915050919050565b60006004600083815260200190815260200160002060009054906101000a900473ffffffffffffffffffffffffffffffffffffffff169050919050565b600033905090565b61104483838360016119d8565b505050565b6000806110558461199b565b9050600073ffffffffffffffffffffffffffffffffffffffff168373ffffffffffffffffffffffffffffffffffffffff161461109757611096818486611b9d565b5b600073ffffffffffffffffffffffffffffffffffffffff168173ffffffffffffffffffffffffffffffffffffffff1614611128576110d96000856000806119d8565b6001600360008373ffffffffffffffffffffffffffffffffffffffff1673ffffffffffffffffffffffffffffffffffffffff168152602001908152602001600020600082825403925050819055505b600073ffffffffffffffffffffffffffffffffffffffff168573ffffffffffffffffffffffffffffffffffffffff16146111ab576001600360008773ffffffffffffffffffffffffffffffffffffffff1673ffffffffffffffffffffffffffffffffffffffff168152602001908152602001600020600082825401925050819055505b846002600086815260200190815260200160002060006101000a81548173ffffffffffffffffffffffffffffffffffffffff021916908373ffffffffffffffffffffffffffffffffffffffff160217905550838573ffffffffffffffffffffffffffffffffffffffff168273ffffffffffffffffffffffffffffffffffffffff167fddf252ad1be2c89b69c2b068fc378daa952ba7f163c4a11628f55a4df523b3ef60405160405180910390a4809150509392505050565b60006112726000836000611049565b9050600073ffffffffffffffffffffffffffffffffffffffff168173ffffffffffffffffffffffffffffffffffffffff16036112e557816040517f7e2732890000000000000000000000000000000000000000000000000000000081526004016112dc91906121fe565b60405180910390fd5b5050565b6112f161102f565b73ffffffffffffffffffffffffffffffffffffffff1661130f6109e5565b73ffffffffffffffffffffffffffffffffffffffff161461136e5761133261102f565b6040517f118cdaa70000000000000000000000000000000000000000000000000000000081526004016113659190612168565b60405180910390fd5b565b6000600760009054906101000a900473ffffffffffffffffffffffffffffffffffffffff16905081600760006101000a81548173ffffffffffffffffffffffffffffffffffffffff021916908373ffffffffffffffffffffffffffffffffffffffff1602179055508173ffffffffffffffffffffffffffffffffffffffff168173ffffffffffffffffffffffffffffffffffffffff167f8be0079c531659141344cd1fd0a4f28419497f9722a3daafe3b4186f6b6457e060405160405180910390a35050565b600073ffffffffffffffffffffffffffffffffffffffff168273ffffffffffffffffffffffffffffffffffffffff16036114a757816040517f5b08ba1800000000000000000000000000000000000000000000000000000000815260040161149e9190612168565b60405180910390fd5b80600560008573ffffffffffffffffffffffffffffffffffffffff1673ffffffffffffffffffffffffffffffffffffffff16815260200190815260200160002060008473ffffffffffffffffffffffffffffffffffffffff1673ffffffffffffffffffffffffffffffffffffffff16815260200190815260200160002060006101000a81548160ff0219169083151502179055508173ffffffffffffffffffffffffffffffffffffffff168373ffffffffffffffffffffffffffffffffffffffff167f17307eab39ab6107e8899845ad3d59bd9653f200f220920489ca2b5937696c31836040516115989190611ff7565b60405180910390a3505050565b60008373ffffffffffffffffffffffffffffffffffffffff163b1115611756578273ffffffffffffffffffffffffffffffffffffffff1663150b7a026115e961102f565b8685856040518563ffffffff1660e01b815260040161160b9493929190612ac1565b6020604051808303816000875af192505050801561164757506040513d601f19601f820116820180604052508101906116449190612b22565b60015b6116cb573d8060008114611677576040519150601f19603f3d011682016040523d82523d6000602084013e61167c565b606091505b5060008151036116c357836040517f64a0ae920000000000000000000000000000000000000000000000000000000081526004016116ba9190612168565b60405180910390fd5b805181602001fd5b63150b7a0260e01b7bffffffffffffffffffffffffffffffffffffffffffffffffffffffff1916817bffffffffffffffffffffffffffffffffffffffffffffffffffffffff19161461175457836040517f64a0ae9200000000000000000000000000000000000000000000000000000000815260040161174b9190612168565b60405180910390fd5b505b50505050565b606060405180602001604052806000815250905090565b606061177e82610f6a565b50600061178961175c565b905060008151116117a957604051806020016040528060008152506117d4565b806117b384611c61565b6040516020016117c4929190612994565b6040516020818303038152906040525b915050919050565b600073ffffffffffffffffffffffffffffffffffffffff168273ffffffffffffffffffffffffffffffffffffffff160361184e5760006040517f64a0ae920000000000000000000000000000000000000000000000000000000081526004016118459190612168565b60405180910390fd5b600061185c83836000611049565b9050600073ffffffffffffffffffffffffffffffffffffffff168173ffffffffffffffffffffffffffffffffffffffff16146118d05760006040517f73c6ac6e0000000000000000000000000000000000000000000000000000000081526004016118c79190612168565b60405180910390fd5b505050565b806006600084815260200190815260200160002090816118f59190612cfb565b507ff8e1a15aba9398e019f0b49df1a4fde98ee17ae345cb5f6b5e2c27f5033e8ce78260405161192591906121fe565b60405180910390a15050565b60007f01ffc9a7000000000000000000000000000000000000000000000000000000007bffffffffffffffffffffffffffffffffffffffffffffffffffffffff1916827bffffffffffffffffffffffffffffffffffffffffffffffffffffffff1916149050919050565b60006002600083815260200190815260200160002060009054906101000a900473ffffffffffffffffffffffffffffffffffffffff169050919050565b8080611a115750600073ffffffffffffffffffffffffffffffffffffffff168273ffffffffffffffffffffffffffffffffffffffff1614155b15611b45576000611a2184610f6a565b9050600073ffffffffffffffffffffffffffffffffffffffff168373ffffffffffffffffffffffffffffffffffffffff1614158015611a8c57508273ffffffffffffffffffffffffffffffffffffffff168173ffffffffffffffffffffffffffffffffffffffff1614155b8015611a9f5750611a9d8184610d6e565b155b15611ae157826040517fa9fbf51f000000000000000000000000000000000000000000000000000000008152600401611ad89190612168565b60405180910390fd5b8115611b4357838573ffffffffffffffffffffffffffffffffffffffff168273ffffffffffffffffffffffffffffffffffffffff167f8c5be1e5ebec7d5bd14f71427d1e84f3dd0314c0f7b2291e5b200ac8c7c3b92560405160405180910390a45b505b836004600085815260200190815260200160002060006101000a81548173ffffffffffffffffffffffffffffffffffffffff021916908373ffffffffffffffffffffffffffffffffffffffff16021790555050505050565b611ba8838383611d2f565b611c5c57600073ffffffffffffffffffffffffffffffffffffffff168373ffffffffffffffffffffffffffffffffffffffff1603611c1d57806040517f7e273289000000000000000000000000000000000000000000000000000000008152600401611c1491906121fe565b60405180910390fd5b81816040517f177e802f000000000000000000000000000000000000000000000000000000008152600401611c53929190612dcd565b60405180910390fd5b505050565b606060006001611c7084611df0565b01905060008167ffffffffffffffff811115611c8f57611c8e61230f565b5b6040519080825280601f01601f191660200182016040528015611cc15781602001600182028036833780820191505090505b509050600082602001820190505b600115611d24578080600190039150507f3031323334353637383961626364656600000000000000000000000000000000600a86061a8153600a8581611d1857611d176128f8565b5b04945060008503611ccf575b819350505050919050565b60008073ffffffffffffffffffffffffffffffffffffffff168373ffffffffffffffffffffffffffffffffffffffff1614158015611de757508273ffffffffffffffffffffffffffffffffffffffff168473ffffffffffffffffffffffffffffffffffffffff161480611da85750611da78484610d6e565b5b80611de657508273ffffffffffffffffffffffffffffffffffffffff16611dce83610ff2565b73ffffffffffffffffffffffffffffffffffffffff16145b5b90509392505050565b600080600090507a184f03e93ff9f4daa797ed6e38ed64bf6a1f0100000000000000008310611e4e577a184f03e93ff9f4daa797ed6e38ed64bf6a1f0100000000000000008381611e4457611e436128f8565b5b0492506040810190505b6d04ee2d6d415b85acef81000000008310611e8b576d04ee2d6d415b85acef81000000008381611e8157611e806128f8565b5b0492506020810190505b662386f26fc100008310611eba57662386f26fc100008381611eb057611eaf6128f8565b5b0492506010810190505b6305f5e1008310611ee3576305f5e1008381611ed957611ed86128f8565b5b0492506008810190505b6127108310611f08576127108381611efe57611efd6128f8565b5b0492506004810190505b60648310611f2b5760648381611f2157611f206128f8565b5b0492506002810190505b600a8310611f3a576001810190505b80915050919050565b6000604051905090565b600080fd5b600080fd5b60007fffffffff0000000000000000000000000000000000000000000000000000000082169050919050565b611f8c81611f57565b8114611f9757600080fd5b50565b600081359050611fa981611f83565b92915050565b600060208284031215611fc557611fc4611f4d565b5b6000611fd384828501611f9a565b91505092915050565b60008115159050919050565b611ff181611fdc565b82525050565b600060208201905061200c6000830184611fe8565b92915050565b600081519050919050565b600082825260208201905092915050565b60005b8381101561204c578082015181840152602081019050612031565b60008484015250505050565b6000601f19601f8301169050919050565b600061207482612012565b61207e818561201d565b935061208e81856020860161202e565b61209781612058565b840191505092915050565b600060208201905081810360008301526120bc8184612069565b905092915050565b6000819050919050565b6120d7816120c4565b81146120e257600080fd5b50565b6000813590506120f4816120ce565b92915050565b6000602082840312156121105761210f611f4d565b5b600061211e848285016120e5565b91505092915050565b600073ffffffffffffffffffffffffffffffffffffffff82169050919050565b600061215282612127565b9050919050565b61216281612147565b82525050565b600060208201905061217d6000830184612159565b92915050565b61218c81612147565b811461219757600080fd5b50565b6000813590506121a981612183565b92915050565b600080604083850312156121c6576121c5611f4d565b5b60006121d48582860161219a565b92505060206121e5858286016120e5565b9150509250929050565b6121f8816120c4565b82525050565b600060208201905061221360008301846121ef565b92915050565b60008060006060848603121561223257612231611f4d565b5b60006122408682870161219a565b93505060206122518682870161219a565b9250506040612262868287016120e5565b9150509250925092565b60006020828403121561228257612281611f4d565b5b60006122908482850161219a565b91505092915050565b6122a281611fdc565b81146122ad57600080fd5b50565b6000813590506122bf81612299565b92915050565b600080604083850312156122dc576122db611f4d565b5b60006122ea8582860161219a565b92505060206122fb858286016122b0565b9150509250929050565b600080fd5b600080fd5b7f4e487b7100000000000000000000000000000000000000000000000000000000600052604160045260246000fd5b61234782612058565b810181811067ffffffffffffffff821117156123665761236561230f565b5b80604052505050565b6000612379611f43565b9050612385828261233e565b919050565b600067ffffffffffffffff8211156123a5576123a461230f565b5b6123ae82612058565b9050602081019050919050565b82818337600083830152505050565b60006123dd6123d88461238a565b61236f565b9050828152602081018484840111156123f9576123f861230a565b5b6124048482856123bb565b509392505050565b600082601f83011261242157612420612305565b5b81356124318482602086016123ca565b91505092915050565b6000806000806080858703121561245457612453611f4d565b5b60006124628782880161219a565b94505060206124738782880161219a565b9350506040612484878288016120e5565b925050606085013567ffffffffffffffff8111156124a5576124a4611f52565b5b6124b18782880161240c565b91505092959194509250565b600080fd5b600080fd5b60008083601f8401126124dd576124dc612305565b5b8235905067ffffffffffffffff8111156124fa576124f96124bd565b5b602083019150836001820283011115612516576125156124c2565b5b9250929050565b6000806020838503121561253457612533611f4d565b5b600083013567ffffffffffffffff81111561255257612551611f52565b5b61255e858286016124c7565b92509250509250929050565b6000806040838503121561258157612580611f4d565b5b600061258f8582860161219a565b92505060206125a08582860161219a565b9150509250929050565b7f4e487b7100000000000000000000000000000000000000000000000000000000600052602260045260246000fd5b600060028204905060018216806125f157607f821691505b602082108103612604576126036125aa565b5b50919050565b600060608201905061261f6000830186612159565b61262c60208301856121ef565b6126396040830184612159565b949350505050565b7f596f7520617265206e6f7420746865206f776e6572206f6620636f6e7472616360008201527f7400000000000000000000000000000000000000000000000000000000000000602082015250565b600061269d60218361201d565b91506126a882612641565b604082019050919050565b600060208201905081810360008301526126cc81612690565b9050919050565b7f4e487b7100000000000000000000000000000000000000000000000000000000600052601160045260246000fd5b600061270d826120c4565b9150600082036127205761271f6126d3565b5b600182039050919050565b60008160011c9050919050565b6000808291508390505b60018511156127825780860481111561275e5761275d6126d3565b5b600185161561276d5780820291505b808102905061277b8561272b565b9450612742565b94509492505050565b60008261279b5760019050612857565b816127a95760009050612857565b81600181146127bf57600281146127c9576127f8565b6001915050612857565b60ff8411156127db576127da6126d3565b5b8360020a9150848211156127f2576127f16126d3565b5b50612857565b5060208310610133831016604e8410600b841016171561282d5782820a905083811115612828576128276126d3565b5b612857565b61283a8484846001612738565b92509050818404811115612851576128506126d3565b5b81810290505b9392505050565b600060ff82169050919050565b6000612876826120c4565b91506128818361285e565b92506128ae7fffffffffffffffffffffffffffffffffffffffffffffffffffffffffffffffff848461278b565b905092915050565b60006128c1826120c4565b91506128cc836120c4565b92508282026128da816120c4565b915082820484148315176128f1576128f06126d3565b5b5092915050565b7f4e487b7100000000000000000000000000000000000000000000000000000000600052601260045260246000fd5b6000612932826120c4565b915061293d836120c4565b92508261294d5761294c6128f8565b5b828204905092915050565b600081905092915050565b600061296e82612012565b6129788185612958565b935061298881856020860161202e565b80840191505092915050565b60006129a08285612963565b91506129ac8284612963565b91508190509392505050565b7f706c6561736520656e74657220636f727265637420616d6f756e740000000000600082015250565b60006129ee601b8361201d565b91506129f9826129b8565b602082019050919050565b60006020820190508181036000830152612a1d816129e1565b9050919050565b6000612a2f826120c4565b91507fffffffffffffffffffffffffffffffffffffffffffffffffffffffffffffffff8203612a6157612a606126d3565b5b600182019050919050565b600081519050919050565b600082825260208201905092915050565b6000612a9382612a6c565b612a9d8185612a77565b9350612aad81856020860161202e565b612ab681612058565b840191505092915050565b6000608082019050612ad66000830187612159565b612ae36020830186612159565b612af060408301856121ef565b8181036060830152612b028184612a88565b905095945050505050565b600081519050612b1c81611f83565b92915050565b600060208284031215612b3857612b37611f4d565b5b6000612b4684828501612b0d565b91505092915050565b60008190508160005260206000209050919050565b60006020601f8301049050919050565b600082821b905092915050565b600060088302612bb17fffffffffffffffffffffffffffffffffffffffffffffffffffffffffffffffff82612b74565b612bbb8683612b74565b95508019841693508086168417925050509392505050565b6000819050919050565b6000612bf8612bf3612bee846120c4565b612bd3565b6120c4565b9050919050565b6000819050919050565b612c1283612bdd565b612c26612c1e82612bff565b848454612b81565b825550505050565b600090565b612c3b612c2e565b612c46818484612c09565b505050565b5b81811015612c6a57612c5f600082612c33565b600181019050612c4c565b5050565b601f821115612caf57612c8081612b4f565b612c8984612b64565b81016020851015612c98578190505b612cac612ca485612b64565b830182612c4b565b50505b505050565b600082821c905092915050565b6000612cd260001984600802612cb4565b1980831691505092915050565b6000612ceb8383612cc1565b9150826002028217905092915050565b612d0482612012565b67ffffffffffffffff811115612d1d57612d1c61230f565b5b612d2782546125d9565b612d32828285612c6e565b600060209050601f831160018114612d655760008415612d53578287015190505b612d5d8582612cdf565b865550612dc5565b601f198416612d7386612b4f565b60005b82811015612d9b57848901518255600182019150602085019450602081019050612d76565b86831015612db85784890151612db4601f891682612cc1565b8355505b6001600288020188555050505b505050505050565b6000604082019050612de26000830185612159565b612def60208301846121ef565b939250505056fea2646970667358221220ef6d083b7c715873492fd443617524aa391c8978d502737e44364e4c7eb5ee4364736f6c63430008180033",
  "linkReferences": {},
  "deployedLinkReferences": {}
}