{
  "_format": "hh-sol-artifact-1",
  "contractName": "nft",
  "sourceName": "contracts/nft.sol",
  "abi": [
    {
      "inputs": [],
      "stateMutability": "payable",
      "type": "constructor"
    },
    {
      "inputs": [
        {
          "internalType": "address",
          "name": "sender",
          "type": "address"
        },
        {
          "internalType": "uint256",
          "name": "tokenId",
          "type": "uint256"
        },
        {
          "internalType": "address",
          "name": "owner",
          "type": "address"
        }
      ],
      "name": "ERC721IncorrectOwner",
      "type": "error"
    },
    {
      "inputs": [
        {
          "internalType": "address",
          "name": "operator",
          "type": "address"
        },
        {
          "internalType": "uint256",
          "name": "tokenId",
          "type": "uint256"
        }
      ],
      "name": "ERC721InsufficientApproval",
      "type": "error"
    },
    {
      "inputs": [
        {
          "internalType": "address",
          "name": "approver",
          "type": "address"
        }
      ],
      "name": "ERC721InvalidApprover",
      "type": "error"
    },
    {
      "inputs": [
        {
          "internalType": "address",
          "name": "operator",
          "type": "address"
        }
      ],
      "name": "ERC721InvalidOperator",
      "type": "error"
    },
    {
      "inputs": [
        {
          "internalType": "address",
          "name": "owner",
          "type": "address"
        }
      ],
      "name": "ERC721InvalidOwner",
      "type": "error"
    },
    {
      "inputs": [
        {
          "internalType": "address",
          "name": "receiver",
          "type": "address"
        }
      ],
      "name": "ERC721InvalidReceiver",
      "type": "error"
    },
    {
      "inputs": [
        {
          "internalType": "address",
          "name": "sender",
          "type": "address"
        }
      ],
      "name": "ERC721InvalidSender",
      "type": "error"
    },
    {
      "inputs": [
        {
          "internalType": "uint256",
          "name": "tokenId",
          "type": "uint256"
        }
      ],
      "name": "ERC721NonexistentToken",
      "type": "error"
    },
    {
      "inputs": [
        {
          "internalType": "address",
          "name": "owner",
          "type": "address"
        }
      ],
      "name": "OwnableInvalidOwner",
      "type": "error"
    },
    {
      "inputs": [
        {
          "internalType": "address",
          "name": "account",
          "type": "address"
        }
      ],
      "name": "OwnableUnauthorizedAccount",
      "type": "error"
    },
    {
      "anonymous": false,
      "inputs": [
        {
          "indexed": true,
          "internalType": "address",
          "name": "owner",
          "type": "address"
        },
        {
          "indexed": true,
          "internalType": "address",
          "name": "approved",
          "type": "address"
        },
        {
          "indexed": true,
          "internalType": "uint256",
          "name": "tokenId",
          "type": "uint256"
        }
      ],
      "name": "Approval",
      "type": "event"
    },
    {
      "anonymous": false,
      "inputs": [
        {
          "indexed": true,
          "internalType": "address",
          "name": "owner",
          "type": "address"
        },
        {
          "indexed": true,
          "internalType": "address",
          "name": "operator",
          "type": "address"
        },
        {
          "indexed": false,
          "internalType": "bool",
          "name": "approved",
          "type": "bool"
        }
      ],
      "name": "ApprovalForAll",
      "type": "event"
    },
    {
      "anonymous": false,
      "inputs": [
        {
          "indexed": true,
          "internalType": "address",
          "name": "previousOwner",
          "type": "address"
        },
        {
          "indexed": true,
          "internalType": "address",
          "name": "newOwner",
          "type": "address"
        }
      ],
      "name": "OwnershipTransferred",
      "type": "event"
    },
    {
      "anonymous": false,
      "inputs": [
        {
          "indexed": true,
          "internalType": "address",
          "name": "from",
          "type": "address"
        },
        {
          "indexed": true,
          "internalType": "address",
          "name": "to",
          "type": "address"
        },
        {
          "indexed": true,
          "internalType": "uint256",
          "name": "tokenId",
          "type": "uint256"
        }
      ],
      "name": "Transfer",
      "type": "event"
    },
    {
      "inputs": [
        {
          "internalType": "bool",
          "name": "_isPublicMintEnabled",
          "type": "bool"
        }
      ],
      "name": "IsPublicMintEnabled",
      "outputs": [],
      "stateMutability": "nonpayable",
      "type": "function"
    },
    {
      "inputs": [
        {
          "internalType": "address",
          "name": "to",
          "type": "address"
        },
        {
          "internalType": "uint256",
          "name": "tokenId",
          "type": "uint256"
        }
      ],
      "name": "approve",
      "outputs": [],
      "stateMutability": "nonpayable",
      "type": "function"
    },
    {
      "inputs": [
        {
          "internalType": "address",
          "name": "owner",
          "type": "address"
        }
      ],
      "name": "balanceOf",
      "outputs": [
        {
          "internalType": "uint256",
          "name": "",
          "type": "uint256"
        }
      ],
      "stateMutability": "view",
      "type": "function"
    },
    {
      "inputs": [
        {
          "internalType": "uint256",
          "name": "tokenId",
          "type": "uint256"
        }
      ],
      "name": "getApproved",
      "outputs": [
        {
          "internalType": "address",
          "name": "",
          "type": "address"
        }
      ],
      "stateMutability": "view",
      "type": "function"
    },
    {
      "inputs": [
        {
          "internalType": "address",
          "name": "owner",
          "type": "address"
        },
        {
          "internalType": "address",
          "name": "operator",
          "type": "address"
        }
      ],
      "name": "isApprovedForAll",
      "outputs": [
        {
          "internalType": "bool",
          "name": "",
          "type": "bool"
        }
      ],
      "stateMutability": "view",
      "type": "function"
    },
    {
      "inputs": [],
      "name": "isPublicMintEnabled",
      "outputs": [
        {
          "internalType": "bool",
          "name": "",
          "type": "bool"
        }
      ],
      "stateMutability": "view",
      "type": "function"
    },
    {
      "inputs": [],
      "name": "maxSupply",
      "outputs": [
        {
          "internalType": "uint256",
          "name": "",
          "type": "uint256"
        }
      ],
      "stateMutability": "view",
      "type": "function"
    },
    {
      "inputs": [],
      "name": "maxperWallet",
      "outputs": [
        {
          "internalType": "uint256",
          "name": "",
          "type": "uint256"
        }
      ],
      "stateMutability": "view",
      "type": "function"
    },
    {
      "inputs": [
        {
          "internalType": "uint256",
          "name": "_quantity",
          "type": "uint256"
        }
      ],
      "name": "mint",
      "outputs": [],
      "stateMutability": "payable",
      "type": "function"
    },
    {
      "inputs": [],
      "name": "mintPrice",
      "outputs": [
        {
          "internalType": "uint256",
          "name": "",
          "type": "uint256"
        }
      ],
      "stateMutability": "view",
      "type": "function"
    },
    {
      "inputs": [],
      "name": "name",
      "outputs": [
        {
          "internalType": "string",
          "name": "",
          "type": "string"
        }
      ],
      "stateMutability": "view",
      "type": "function"
    },
    {
      "inputs": [],
      "name": "owner",
      "outputs": [
        {
          "internalType": "address",
          "name": "",
          "type": "address"
        }
      ],
      "stateMutability": "view",
      "type": "function"
    },
    {
      "inputs": [
        {
          "internalType": "uint256",
          "name": "tokenId",
          "type": "uint256"
        }
      ],
      "name": "ownerOf",
      "outputs": [
        {
          "internalType": "address",
          "name": "",
          "type": "address"
        }
      ],
      "stateMutability": "view",
      "type": "function"
    },
    {
      "inputs": [],
      "name": "renounceOwnership",
      "outputs": [],
      "stateMutability": "nonpayable",
      "type": "function"
    },
    {
      "inputs": [
        {
          "internalType": "address",
          "name": "from",
          "type": "address"
        },
        {
          "internalType": "address",
          "name": "to",
          "type": "address"
        },
        {
          "internalType": "uint256",
          "name": "tokenId",
          "type": "uint256"
        }
      ],
      "name": "safeTransferFrom",
      "outputs": [],
      "stateMutability": "nonpayable",
      "type": "function"
    },
    {
      "inputs": [
        {
          "internalType": "address",
          "name": "from",
          "type": "address"
        },
        {
          "internalType": "address",
          "name": "to",
          "type": "address"
        },
        {
          "internalType": "uint256",
          "name": "tokenId",
          "type": "uint256"
        },
        {
          "internalType": "bytes",
          "name": "data",
          "type": "bytes"
        }
      ],
      "name": "safeTransferFrom",
      "outputs": [],
      "stateMutability": "nonpayable",
      "type": "function"
    },
    {
      "inputs": [
        {
          "internalType": "address",
          "name": "operator",
          "type": "address"
        },
        {
          "internalType": "bool",
          "name": "approved",
          "type": "bool"
        }
      ],
      "name": "setApprovalForAll",
      "outputs": [],
      "stateMutability": "nonpayable",
      "type": "function"
    },
    {
      "inputs": [
        {
          "internalType": "string",
          "name": "_basetokenUrl",
          "type": "string"
        }
      ],
      "name": "setBaseTokenUrl",
      "outputs": [],
      "stateMutability": "nonpayable",
      "type": "function"
    },
    {
      "inputs": [
        {
          "internalType": "bytes4",
          "name": "interfaceId",
          "type": "bytes4"
        }
      ],
      "name": "supportsInterface",
      "outputs": [
        {
          "internalType": "bool",
          "name": "",
          "type": "bool"
        }
      ],
      "stateMutability": "view",
      "type": "function"
    },
    {
      "inputs": [],
      "name": "symbol",
      "outputs": [
        {
          "internalType": "string",
          "name": "",
          "type": "string"
        }
      ],
      "stateMutability": "view",
      "type": "function"
    },
    {
      "inputs": [
        {
          "internalType": "uint256",
          "name": "_tokenId",
          "type": "uint256"
        }
      ],
      "name": "tokenURI",
      "outputs": [
        {
          "internalType": "string",
          "name": "",
          "type": "string"
        }
      ],
      "stateMutability": "view",
      "type": "function"
    },
    {
      "inputs": [],
      "name": "totalSupply",
      "outputs": [
        {
          "internalType": "uint256",
          "name": "",
          "type": "uint256"
        }
      ],
      "stateMutability": "view",
      "type": "function"
    },
    {
      "inputs": [
        {
          "internalType": "address",
          "name": "from",
          "type": "address"
        },
        {
          "internalType": "address",
          "name": "to",
          "type": "address"
        },
        {
          "internalType": "uint256",
          "name": "tokenId",
          "type": "uint256"
        }
      ],
      "name": "transferFrom",
      "outputs": [],
      "stateMutability": "nonpayable",
      "type": "function"
    },
    {
      "inputs": [
        {
          "internalType": "address",
          "name": "newOwner",
          "type": "address"
        }
      ],
      "name": "transferOwnership",
      "outputs": [],
      "stateMutability": "nonpayable",
      "type": "function"
    },
    {
      "inputs": [
        {
          "internalType": "address",
          "name": "",
          "type": "address"
        }
      ],
      "name": "walletMints",
      "outputs": [
        {
          "internalType": "uint256",
          "name": "",
          "type": "uint256"
        }
      ],
      "stateMutability": "view",
      "type": "function"
    },
    {
      "inputs": [],
      "name": "withdraw",
      "outputs": [],
      "stateMutability": "nonpayable",
      "type": "function"
    },
    {
      "inputs": [],
      "name": "withdrawFunds",
      "outputs": [
        {
          "internalType": "address payable",
          "name": "",
          "type": "address"
        }
      ],
      "stateMutability": "view",
      "type": "function"
    }
  ],
  "bytecode": "0x6080604052336040518060400160405280600981526020017f526f626f70756e6b7300000000000000000000000000000000000000000000008152506040518060400160405280600281526020017f525000000000000000000000000000000000000000000000000000000000000081525081600090816200008291906200048b565b5080600190816200009491906200048b565b505050600073ffffffffffffffffffffffffffffffffffffffff168173ffffffffffffffffffffffffffffffffffffffff16036200010c5760006040517f1e4fbdf7000000000000000000000000000000000000000000000000000000008152600401620001039190620005b7565b60405180910390fd5b6200011d816200014b60201b60201c565b5066470de4df82000060078190555060006008819055506103e86009819055506003600a81905550620005d4565b6000600660009054906101000a900473ffffffffffffffffffffffffffffffffffffffff16905081600660006101000a81548173ffffffffffffffffffffffffffffffffffffffff021916908373ffffffffffffffffffffffffffffffffffffffff1602179055508173ffffffffffffffffffffffffffffffffffffffff168173ffffffffffffffffffffffffffffffffffffffff167f8be0079c531659141344cd1fd0a4f28419497f9722a3daafe3b4186f6b6457e060405160405180910390a35050565b600081519050919050565b7f4e487b7100000000000000000000000000000000000000000000000000000000600052604160045260246000fd5b7f4e487b7100000000000000000000000000000000000000000000000000000000600052602260045260246000fd5b600060028204905060018216806200029357607f821691505b602082108103620002a957620002a86200024b565b5b50919050565b60008190508160005260206000209050919050565b60006020601f8301049050919050565b600082821b905092915050565b600060088302620003137fffffffffffffffffffffffffffffffffffffffffffffffffffffffffffffffff82620002d4565b6200031f8683620002d4565b95508019841693508086168417925050509392505050565b6000819050919050565b6000819050919050565b60006200036c62000366620003608462000337565b62000341565b62000337565b9050919050565b6000819050919050565b62000388836200034b565b620003a0620003978262000373565b848454620002e1565b825550505050565b600090565b620003b7620003a8565b620003c48184846200037d565b505050565b5b81811015620003ec57620003e0600082620003ad565b600181019050620003ca565b5050565b601f8211156200043b576200040581620002af565b6200041084620002c4565b8101602085101562000420578190505b620004386200042f85620002c4565b830182620003c9565b50505b505050565b600082821c905092915050565b6000620004606000198460080262000440565b1980831691505092915050565b60006200047b83836200044d565b9150826002028217905092915050565b620004968262000211565b67ffffffffffffffff811115620004b257620004b16200021c565b5b620004be82546200027a565b620004cb828285620003f0565b600060209050601f831160018114620005035760008415620004ee578287015190505b620004fa85826200046d565b8655506200056a565b601f1984166200051386620002af565b60005b828110156200053d5784890151825560018201915060208501945060208101905062000516565b868310156200055d578489015162000559601f8916826200044d565b8355505b6001600288020188555050505b505050505050565b600073ffffffffffffffffffffffffffffffffffffffff82169050919050565b60006200059f8262000572565b9050919050565b620005b18162000592565b82525050565b6000602082019050620005ce6000830184620005a6565b92915050565b612f1880620005e46000396000f3fe60806040526004361061019c5760003560e01c806370a08231116100ec578063b88d4fde1161008a578063d5abeb0111610064578063d5abeb0114610593578063e985e9c5146105be578063f0293fd3146105fb578063f2fde38b146106385761019c565b8063b88d4fde14610502578063baac9c431461052b578063c87b56dd146105565761019c565b80638da5cb5b116100c65780638da5cb5b1461046757806395d89b4114610492578063a0712d68146104bd578063a22cb465146104d95761019c565b806370a08231146103ea578063715018a6146104275780637157de4b1461043e5761019c565b806323b872dd116101595780633ccfd60b116101335780633ccfd60b1461034257806342842e0e146103595780636352211e146103825780636817c76c146103bf5761019c565b806323b872dd146102c557806324600fc3146102ee5780632e8458a8146103195761019c565b80630116bc2d146101a157806301ffc9a7146101cc57806306fdde0314610209578063081812fc14610234578063095ea7b31461027157806318160ddd1461029a575b600080fd5b3480156101ad57600080fd5b506101b6610661565b6040516101c39190611edf565b60405180910390f35b3480156101d857600080fd5b506101f360048036038101906101ee9190611f66565b610674565b6040516102009190611edf565b60405180910390f35b34801561021557600080fd5b5061021e610756565b60405161022b9190612023565b60405180910390f35b34801561024057600080fd5b5061025b6004803603810190610256919061207b565b6107e8565b60405161026891906120e9565b60405180910390f35b34801561027d57600080fd5b5061029860048036038101906102939190612130565b610804565b005b3480156102a657600080fd5b506102af61081a565b6040516102bc919061217f565b60405180910390f35b3480156102d157600080fd5b506102ec60048036038101906102e7919061219a565b610820565b005b3480156102fa57600080fd5b50610303610922565b604051610310919061220e565b60405180910390f35b34801561032557600080fd5b50610340600480360381019061033b9190612255565b610948565b005b34801561034e57600080fd5b5061035761096d565b005b34801561036557600080fd5b50610380600480360381019061037b919061219a565b610a46565b005b34801561038e57600080fd5b506103a960048036038101906103a4919061207b565b610a66565b6040516103b691906120e9565b60405180910390f35b3480156103cb57600080fd5b506103d4610a78565b6040516103e1919061217f565b60405180910390f35b3480156103f657600080fd5b50610411600480360381019061040c9190612282565b610a7e565b60405161041e919061217f565b60405180910390f35b34801561043357600080fd5b5061043c610b38565b005b34801561044a57600080fd5b5061046560048036038101906104609190612314565b610b4c565b005b34801561047357600080fd5b5061047c610b6a565b60405161048991906120e9565b60405180910390f35b34801561049e57600080fd5b506104a7610b94565b6040516104b49190612023565b60405180910390f35b6104d760048036038101906104d2919061207b565b610c26565b005b3480156104e557600080fd5b5061050060048036038101906104fb9190612361565b610df7565b005b34801561050e57600080fd5b50610529600480360381019061052491906124d1565b610e0d565b005b34801561053757600080fd5b50610540610e2a565b60405161054d919061217f565b60405180910390f35b34801561056257600080fd5b5061057d6004803603810190610578919061207b565b610e30565b60405161058a9190612023565b60405180910390f35b34801561059f57600080fd5b506105a8610edb565b6040516105b5919061217f565b60405180910390f35b3480156105ca57600080fd5b506105e560048036038101906105e09190612554565b610ee1565b6040516105f29190611edf565b60405180910390f35b34801561060757600080fd5b50610622600480360381019061061d9190612282565b610f75565b60405161062f919061217f565b60405180910390f35b34801561064457600080fd5b5061065f600480360381019061065a9190612282565b610f8d565b005b600b60009054906101000a900460ff1681565b60007f80ac58cd000000000000000000000000000000000000000000000000000000007bffffffffffffffffffffffffffffffffffffffffffffffffffffffff1916827bffffffffffffffffffffffffffffffffffffffffffffffffffffffff1916148061073f57507f5b5e139f000000000000000000000000000000000000000000000000000000007bffffffffffffffffffffffffffffffffffffffffffffffffffffffff1916827bffffffffffffffffffffffffffffffffffffffffffffffffffffffff1916145b8061074f575061074e82611013565b5b9050919050565b606060008054610765906125c3565b80601f0160208091040260200160405190810160405280929190818152602001828054610791906125c3565b80156107de5780601f106107b3576101008083540402835291602001916107de565b820191906000526020600020905b8154815290600101906020018083116107c157829003601f168201915b5050505050905090565b60006107f38261107d565b506107fd82611105565b9050919050565b6108168282610811611142565b61114a565b5050565b60085481565b600073ffffffffffffffffffffffffffffffffffffffff168273ffffffffffffffffffffffffffffffffffffffff16036108925760006040517f64a0ae9200000000000000000000000000000000000000000000000000000000815260040161088991906120e9565b60405180910390fd5b60006108a683836108a1611142565b61115c565b90508373ffffffffffffffffffffffffffffffffffffffff168173ffffffffffffffffffffffffffffffffffffffff161461091c578382826040517f64283d7b000000000000000000000000000000000000000000000000000000008152600401610913939291906125f4565b60405180910390fd5b50505050565b600d60009054906101000a900473ffffffffffffffffffffffffffffffffffffffff1681565b610950611376565b80600b60006101000a81548160ff02191690831515021790555050565b610975611376565b6000600d60009054906101000a900473ffffffffffffffffffffffffffffffffffffffff1673ffffffffffffffffffffffffffffffffffffffff16476040516109bd9061265c565b60006040518083038185875af1925050503d80600081146109fa576040519150601f19603f3d011682016040523d82523d6000602084013e6109ff565b606091505b5050905080610a43576040517f08c379a0000000000000000000000000000000000000000000000000000000008152600401610a3a906126bd565b60405180910390fd5b50565b610a6183838360405180602001604052806000815250610e0d565b505050565b6000610a718261107d565b9050919050565b60075481565b60008073ffffffffffffffffffffffffffffffffffffffff168273ffffffffffffffffffffffffffffffffffffffff1603610af15760006040517f89c62b64000000000000000000000000000000000000000000000000000000008152600401610ae891906120e9565b60405180910390fd5b600360008373ffffffffffffffffffffffffffffffffffffffff1673ffffffffffffffffffffffffffffffffffffffff168152602001908152602001600020549050919050565b610b40611376565b610b4a60006113fd565b565b610b54611376565b8181600c9182610b65929190612894565b505050565b6000600660009054906101000a900473ffffffffffffffffffffffffffffffffffffffff16905090565b606060018054610ba3906125c3565b80601f0160208091040260200160405190810160405280929190818152602001828054610bcf906125c3565b8015610c1c5780601f10610bf157610100808354040283529160200191610c1c565b820191906000526020600020905b815481529060010190602001808311610bff57829003601f168201915b5050505050905090565b600b60009054906101000a900460ff16610c75576040517f08c379a0000000000000000000000000000000000000000000000000000000008152600401610c6c906129b0565b60405180910390fd5b60075481610c8391906129ff565b3414610cc4576040517f08c379a0000000000000000000000000000000000000000000000000000000008152600401610cbb90612a8d565b60405180910390fd5b60095481600854610cd59190612aad565b1115610d16576040517f08c379a0000000000000000000000000000000000000000000000000000000008152600401610d0d90612b2d565b60405180910390fd5b600a5481600e60003373ffffffffffffffffffffffffffffffffffffffff1673ffffffffffffffffffffffffffffffffffffffff16815260200190815260200160002054610d649190612aad565b1115610da5576040517f08c379a0000000000000000000000000000000000000000000000000000000008152600401610d9c90612b99565b60405180910390fd5b60005b81811015610df35760006001600854610dc19190612aad565b905060086000815480929190610dd690612bb9565b9190505550610de533826114c3565b508080600101915050610da8565b5050565b610e09610e02611142565b83836114e1565b5050565b610e18848484610820565b610e2484848484611650565b50505050565b600a5481565b6060600073ffffffffffffffffffffffffffffffffffffffff16610e5383611807565b73ffffffffffffffffffffffffffffffffffffffff1603610ea9576040517f08c379a0000000000000000000000000000000000000000000000000000000008152600401610ea090612c4d565b60405180910390fd5b600c610eb483611844565b604051602001610ec5929190612d78565b6040516020818303038152906040529050919050565b60095481565b6000600560008473ffffffffffffffffffffffffffffffffffffffff1673ffffffffffffffffffffffffffffffffffffffff16815260200190815260200160002060008373ffffffffffffffffffffffffffffffffffffffff1673ffffffffffffffffffffffffffffffffffffffff16815260200190815260200160002060009054906101000a900460ff16905092915050565b600e6020528060005260406000206000915090505481565b610f95611376565b600073ffffffffffffffffffffffffffffffffffffffff168173ffffffffffffffffffffffffffffffffffffffff16036110075760006040517f1e4fbdf7000000000000000000000000000000000000000000000000000000008152600401610ffe91906120e9565b60405180910390fd5b611010816113fd565b50565b60007f01ffc9a7000000000000000000000000000000000000000000000000000000007bffffffffffffffffffffffffffffffffffffffffffffffffffffffff1916827bffffffffffffffffffffffffffffffffffffffffffffffffffffffff1916149050919050565b60008061108983611807565b9050600073ffffffffffffffffffffffffffffffffffffffff168173ffffffffffffffffffffffffffffffffffffffff16036110fc57826040517f7e2732890000000000000000000000000000000000000000000000000000000081526004016110f3919061217f565b60405180910390fd5b80915050919050565b60006004600083815260200190815260200160002060009054906101000a900473ffffffffffffffffffffffffffffffffffffffff169050919050565b600033905090565b6111578383836001611912565b505050565b60008061116884611807565b9050600073ffffffffffffffffffffffffffffffffffffffff168373ffffffffffffffffffffffffffffffffffffffff16146111aa576111a9818486611ad7565b5b600073ffffffffffffffffffffffffffffffffffffffff168173ffffffffffffffffffffffffffffffffffffffff161461123b576111ec600085600080611912565b6001600360008373ffffffffffffffffffffffffffffffffffffffff1673ffffffffffffffffffffffffffffffffffffffff168152602001908152602001600020600082825403925050819055505b600073ffffffffffffffffffffffffffffffffffffffff168573ffffffffffffffffffffffffffffffffffffffff16146112be576001600360008773ffffffffffffffffffffffffffffffffffffffff1673ffffffffffffffffffffffffffffffffffffffff168152602001908152602001600020600082825401925050819055505b846002600086815260200190815260200160002060006101000a81548173ffffffffffffffffffffffffffffffffffffffff021916908373ffffffffffffffffffffffffffffffffffffffff160217905550838573ffffffffffffffffffffffffffffffffffffffff168273ffffffffffffffffffffffffffffffffffffffff167fddf252ad1be2c89b69c2b068fc378daa952ba7f163c4a11628f55a4df523b3ef60405160405180910390a4809150509392505050565b61137e611142565b73ffffffffffffffffffffffffffffffffffffffff1661139c610b6a565b73ffffffffffffffffffffffffffffffffffffffff16146113fb576113bf611142565b6040517f118cdaa70000000000000000000000000000000000000000000000000000000081526004016113f291906120e9565b60405180910390fd5b565b6000600660009054906101000a900473ffffffffffffffffffffffffffffffffffffffff16905081600660006101000a81548173ffffffffffffffffffffffffffffffffffffffff021916908373ffffffffffffffffffffffffffffffffffffffff1602179055508173ffffffffffffffffffffffffffffffffffffffff168173ffffffffffffffffffffffffffffffffffffffff167f8be0079c531659141344cd1fd0a4f28419497f9722a3daafe3b4186f6b6457e060405160405180910390a35050565b6114dd828260405180602001604052806000815250611b9b565b5050565b600073ffffffffffffffffffffffffffffffffffffffff168273ffffffffffffffffffffffffffffffffffffffff160361155257816040517f5b08ba1800000000000000000000000000000000000000000000000000000000815260040161154991906120e9565b60405180910390fd5b80600560008573ffffffffffffffffffffffffffffffffffffffff1673ffffffffffffffffffffffffffffffffffffffff16815260200190815260200160002060008473ffffffffffffffffffffffffffffffffffffffff1673ffffffffffffffffffffffffffffffffffffffff16815260200190815260200160002060006101000a81548160ff0219169083151502179055508173ffffffffffffffffffffffffffffffffffffffff168373ffffffffffffffffffffffffffffffffffffffff167f17307eab39ab6107e8899845ad3d59bd9653f200f220920489ca2b5937696c31836040516116439190611edf565b60405180910390a3505050565b60008373ffffffffffffffffffffffffffffffffffffffff163b1115611801578273ffffffffffffffffffffffffffffffffffffffff1663150b7a02611694611142565b8685856040518563ffffffff1660e01b81526004016116b69493929190612dfc565b6020604051808303816000875af19250505080156116f257506040513d601f19601f820116820180604052508101906116ef9190612e5d565b60015b611776573d8060008114611722576040519150601f19603f3d011682016040523d82523d6000602084013e611727565b606091505b50600081510361176e57836040517f64a0ae9200000000000000000000000000000000000000000000000000000000815260040161176591906120e9565b60405180910390fd5b805181602001fd5b63150b7a0260e01b7bffffffffffffffffffffffffffffffffffffffffffffffffffffffff1916817bffffffffffffffffffffffffffffffffffffffffffffffffffffffff1916146117ff57836040517f64a0ae920000000000000000000000000000000000000000000000000000000081526004016117f691906120e9565b60405180910390fd5b505b50505050565b60006002600083815260200190815260200160002060009054906101000a900473ffffffffffffffffffffffffffffffffffffffff169050919050565b60606000600161185384611bb7565b01905060008167ffffffffffffffff811115611872576118716123a6565b5b6040519080825280601f01601f1916602001820160405280156118a45781602001600182028036833780820191505090505b509050600082602001820190505b600115611907578080600190039150507f3031323334353637383961626364656600000000000000000000000000000000600a86061a8153600a85816118fb576118fa612e8a565b5b049450600085036118b2575b819350505050919050565b808061194b5750600073ffffffffffffffffffffffffffffffffffffffff168273ffffffffffffffffffffffffffffffffffffffff1614155b15611a7f57600061195b8461107d565b9050600073ffffffffffffffffffffffffffffffffffffffff168373ffffffffffffffffffffffffffffffffffffffff16141580156119c657508273ffffffffffffffffffffffffffffffffffffffff168173ffffffffffffffffffffffffffffffffffffffff1614155b80156119d957506119d78184610ee1565b155b15611a1b57826040517fa9fbf51f000000000000000000000000000000000000000000000000000000008152600401611a1291906120e9565b60405180910390fd5b8115611a7d57838573ffffffffffffffffffffffffffffffffffffffff168273ffffffffffffffffffffffffffffffffffffffff167f8c5be1e5ebec7d5bd14f71427d1e84f3dd0314c0f7b2291e5b200ac8c7c3b92560405160405180910390a45b505b836004600085815260200190815260200160002060006101000a81548173ffffffffffffffffffffffffffffffffffffffff021916908373ffffffffffffffffffffffffffffffffffffffff16021790555050505050565b611ae2838383611d0a565b611b9657600073ffffffffffffffffffffffffffffffffffffffff168373ffffffffffffffffffffffffffffffffffffffff1603611b5757806040517f7e273289000000000000000000000000000000000000000000000000000000008152600401611b4e919061217f565b60405180910390fd5b81816040517f177e802f000000000000000000000000000000000000000000000000000000008152600401611b8d929190612eb9565b60405180910390fd5b505050565b611ba58383611dcb565b611bb26000848484611650565b505050565b600080600090507a184f03e93ff9f4daa797ed6e38ed64bf6a1f0100000000000000008310611c15577a184f03e93ff9f4daa797ed6e38ed64bf6a1f0100000000000000008381611c0b57611c0a612e8a565b5b0492506040810190505b6d04ee2d6d415b85acef81000000008310611c52576d04ee2d6d415b85acef81000000008381611c4857611c47612e8a565b5b0492506020810190505b662386f26fc100008310611c8157662386f26fc100008381611c7757611c76612e8a565b5b0492506010810190505b6305f5e1008310611caa576305f5e1008381611ca057611c9f612e8a565b5b0492506008810190505b6127108310611ccf576127108381611cc557611cc4612e8a565b5b0492506004810190505b60648310611cf25760648381611ce857611ce7612e8a565b5b0492506002810190505b600a8310611d01576001810190505b80915050919050565b60008073ffffffffffffffffffffffffffffffffffffffff168373ffffffffffffffffffffffffffffffffffffffff1614158015611dc257508273ffffffffffffffffffffffffffffffffffffffff168473ffffffffffffffffffffffffffffffffffffffff161480611d835750611d828484610ee1565b5b80611dc157508273ffffffffffffffffffffffffffffffffffffffff16611da983611105565b73ffffffffffffffffffffffffffffffffffffffff16145b5b90509392505050565b600073ffffffffffffffffffffffffffffffffffffffff168273ffffffffffffffffffffffffffffffffffffffff1603611e3d5760006040517f64a0ae92000000000000000000000000000000000000000000000000000000008152600401611e3491906120e9565b60405180910390fd5b6000611e4b8383600061115c565b9050600073ffffffffffffffffffffffffffffffffffffffff168173ffffffffffffffffffffffffffffffffffffffff1614611ebf5760006040517f73c6ac6e000000000000000000000000000000000000000000000000000000008152600401611eb691906120e9565b60405180910390fd5b505050565b60008115159050919050565b611ed981611ec4565b82525050565b6000602082019050611ef46000830184611ed0565b92915050565b6000604051905090565b600080fd5b600080fd5b60007fffffffff0000000000000000000000000000000000000000000000000000000082169050919050565b611f4381611f0e565b8114611f4e57600080fd5b50565b600081359050611f6081611f3a565b92915050565b600060208284031215611f7c57611f7b611f04565b5b6000611f8a84828501611f51565b91505092915050565b600081519050919050565b600082825260208201905092915050565b60005b83811015611fcd578082015181840152602081019050611fb2565b60008484015250505050565b6000601f19601f8301169050919050565b6000611ff582611f93565b611fff8185611f9e565b935061200f818560208601611faf565b61201881611fd9565b840191505092915050565b6000602082019050818103600083015261203d8184611fea565b905092915050565b6000819050919050565b61205881612045565b811461206357600080fd5b50565b6000813590506120758161204f565b92915050565b60006020828403121561209157612090611f04565b5b600061209f84828501612066565b91505092915050565b600073ffffffffffffffffffffffffffffffffffffffff82169050919050565b60006120d3826120a8565b9050919050565b6120e3816120c8565b82525050565b60006020820190506120fe60008301846120da565b92915050565b61210d816120c8565b811461211857600080fd5b50565b60008135905061212a81612104565b92915050565b6000806040838503121561214757612146611f04565b5b60006121558582860161211b565b925050602061216685828601612066565b9150509250929050565b61217981612045565b82525050565b60006020820190506121946000830184612170565b92915050565b6000806000606084860312156121b3576121b2611f04565b5b60006121c18682870161211b565b93505060206121d28682870161211b565b92505060406121e386828701612066565b9150509250925092565b60006121f8826120a8565b9050919050565b612208816121ed565b82525050565b600060208201905061222360008301846121ff565b92915050565b61223281611ec4565b811461223d57600080fd5b50565b60008135905061224f81612229565b92915050565b60006020828403121561226b5761226a611f04565b5b600061227984828501612240565b91505092915050565b60006020828403121561229857612297611f04565b5b60006122a68482850161211b565b91505092915050565b600080fd5b600080fd5b600080fd5b60008083601f8401126122d4576122d36122af565b5b8235905067ffffffffffffffff8111156122f1576122f06122b4565b5b60208301915083600182028301111561230d5761230c6122b9565b5b9250929050565b6000806020838503121561232b5761232a611f04565b5b600083013567ffffffffffffffff81111561234957612348611f09565b5b612355858286016122be565b92509250509250929050565b6000806040838503121561237857612377611f04565b5b60006123868582860161211b565b925050602061239785828601612240565b9150509250929050565b600080fd5b7f4e487b7100000000000000000000000000000000000000000000000000000000600052604160045260246000fd5b6123de82611fd9565b810181811067ffffffffffffffff821117156123fd576123fc6123a6565b5b80604052505050565b6000612410611efa565b905061241c82826123d5565b919050565b600067ffffffffffffffff82111561243c5761243b6123a6565b5b61244582611fd9565b9050602081019050919050565b82818337600083830152505050565b600061247461246f84612421565b612406565b9050828152602081018484840111156124905761248f6123a1565b5b61249b848285612452565b509392505050565b600082601f8301126124b8576124b76122af565b5b81356124c8848260208601612461565b91505092915050565b600080600080608085870312156124eb576124ea611f04565b5b60006124f98782880161211b565b945050602061250a8782880161211b565b935050604061251b87828801612066565b925050606085013567ffffffffffffffff81111561253c5761253b611f09565b5b612548878288016124a3565b91505092959194509250565b6000806040838503121561256b5761256a611f04565b5b60006125798582860161211b565b925050602061258a8582860161211b565b9150509250929050565b7f4e487b7100000000000000000000000000000000000000000000000000000000600052602260045260246000fd5b600060028204905060018216806125db57607f821691505b6020821081036125ee576125ed612594565b5b50919050565b600060608201905061260960008301866120da565b6126166020830185612170565b61262360408301846120da565b949350505050565b600081905092915050565b50565b600061264660008361262b565b915061265182612636565b600082019050919050565b600061266782612639565b9150819050919050565b7f77696864726177206661696c6564000000000000000000000000000000000000600082015250565b60006126a7600e83611f9e565b91506126b282612671565b602082019050919050565b600060208201905081810360008301526126d68161269a565b9050919050565b600082905092915050565b60008190508160005260206000209050919050565b60006020601f8301049050919050565b600082821b905092915050565b60006008830261274a7fffffffffffffffffffffffffffffffffffffffffffffffffffffffffffffffff8261270d565b612754868361270d565b95508019841693508086168417925050509392505050565b6000819050919050565b600061279161278c61278784612045565b61276c565b612045565b9050919050565b6000819050919050565b6127ab83612776565b6127bf6127b782612798565b84845461271a565b825550505050565b600090565b6127d46127c7565b6127df8184846127a2565b505050565b5b81811015612803576127f86000826127cc565b6001810190506127e5565b5050565b601f82111561284857612819816126e8565b612822846126fd565b81016020851015612831578190505b61284561283d856126fd565b8301826127e4565b50505b505050565b600082821c905092915050565b600061286b6000198460080261284d565b1980831691505092915050565b6000612884838361285a565b9150826002028217905092915050565b61289e83836126dd565b67ffffffffffffffff8111156128b7576128b66123a6565b5b6128c182546125c3565b6128cc828285612807565b6000601f8311600181146128fb57600084156128e9578287013590505b6128f38582612878565b86555061295b565b601f198416612909866126e8565b60005b828110156129315784890135825560018201915060208501945060208101905061290c565b8683101561294e578489013561294a601f89168261285a565b8355505b6001600288020188555050505b50505050505050565b7f6d696e74696e67206e6f7420656e61626c656400000000000000000000000000600082015250565b600061299a601383611f9e565b91506129a582612964565b602082019050919050565b600060208201905081810360008301526129c98161298d565b9050919050565b7f4e487b7100000000000000000000000000000000000000000000000000000000600052601160045260246000fd5b6000612a0a82612045565b9150612a1583612045565b9250828202612a2381612045565b91508282048414831517612a3a57612a396129d0565b5b5092915050565b7f77726f6e67206d696e742076616c756500000000000000000000000000000000600082015250565b6000612a77601083611f9e565b9150612a8282612a41565b602082019050919050565b60006020820190508181036000830152612aa681612a6a565b9050919050565b6000612ab882612045565b9150612ac383612045565b9250828201905080821115612adb57612ada6129d0565b5b92915050565b7f736f6c64206f7574000000000000000000000000000000000000000000000000600082015250565b6000612b17600883611f9e565b9150612b2282612ae1565b602082019050919050565b60006020820190508181036000830152612b4681612b0a565b9050919050565b7f657863656564206d61782077616c6c6574000000000000000000000000000000600082015250565b6000612b83601183611f9e565b9150612b8e82612b4d565b602082019050919050565b60006020820190508181036000830152612bb281612b76565b9050919050565b6000612bc482612045565b91507fffffffffffffffffffffffffffffffffffffffffffffffffffffffffffffffff8203612bf657612bf56129d0565b5b600182019050919050565b7f546f6b656e20646f6573206e6f74206578697374000000000000000000000000600082015250565b6000612c37601483611f9e565b9150612c4282612c01565b602082019050919050565b60006020820190508181036000830152612c6681612c2a565b9050919050565b600081905092915050565b60008154612c85816125c3565b612c8f8186612c6d565b94506001821660008114612caa5760018114612cbf57612cf2565b60ff1983168652811515820286019350612cf2565b612cc8856126e8565b60005b83811015612cea57815481890152600182019150602081019050612ccb565b838801955050505b50505092915050565b6000612d0682611f93565b612d108185612c6d565b9350612d20818560208601611faf565b80840191505092915050565b7f2e6a736f6e000000000000000000000000000000000000000000000000000000600082015250565b6000612d62600583612c6d565b9150612d6d82612d2c565b600582019050919050565b6000612d848285612c78565b9150612d908284612cfb565b9150612d9b82612d55565b91508190509392505050565b600081519050919050565b600082825260208201905092915050565b6000612dce82612da7565b612dd88185612db2565b9350612de8818560208601611faf565b612df181611fd9565b840191505092915050565b6000608082019050612e1160008301876120da565b612e1e60208301866120da565b612e2b6040830185612170565b8181036060830152612e3d8184612dc3565b905095945050505050565b600081519050612e5781611f3a565b92915050565b600060208284031215612e7357612e72611f04565b5b6000612e8184828501612e48565b91505092915050565b7f4e487b7100000000000000000000000000000000000000000000000000000000600052601260045260246000fd5b6000604082019050612ece60008301856120da565b612edb6020830184612170565b939250505056fea264697066735822122045ba56ecfa485c34009c371de00858b747b4393fbc79cb621dd1c7433194105964736f6c63430008180033",
  "linkReferences": {},
  "deployedLinkReferences": {}
}