{
  "_format": "hh-sol-artifact-1",
  "contractName": "nft",
  "sourceName": "contracts/nft.sol",
  "abi": [
    {
      "inputs": [],
      "stateMutability": "nonpayable",
      "type": "constructor"
    },
    {
      "inputs": [
        {
          "internalType": "address",
          "name": "sender",
          "type": "address"
        },
        {
          "internalType": "uint256",
          "name": "tokenId",
          "type": "uint256"
        },
        {
          "internalType": "address",
          "name": "owner",
          "type": "address"
        }
      ],
      "name": "ERC721IncorrectOwner",
      "type": "error"
    },
    {
      "inputs": [
        {
          "internalType": "address",
          "name": "operator",
          "type": "address"
        },
        {
          "internalType": "uint256",
          "name": "tokenId",
          "type": "uint256"
        }
      ],
      "name": "ERC721InsufficientApproval",
      "type": "error"
    },
    {
      "inputs": [
        {
          "internalType": "address",
          "name": "approver",
          "type": "address"
        }
      ],
      "name": "ERC721InvalidApprover",
      "type": "error"
    },
    {
      "inputs": [
        {
          "internalType": "address",
          "name": "operator",
          "type": "address"
        }
      ],
      "name": "ERC721InvalidOperator",
      "type": "error"
    },
    {
      "inputs": [
        {
          "internalType": "address",
          "name": "owner",
          "type": "address"
        }
      ],
      "name": "ERC721InvalidOwner",
      "type": "error"
    },
    {
      "inputs": [
        {
          "internalType": "address",
          "name": "receiver",
          "type": "address"
        }
      ],
      "name": "ERC721InvalidReceiver",
      "type": "error"
    },
    {
      "inputs": [
        {
          "internalType": "address",
          "name": "sender",
          "type": "address"
        }
      ],
      "name": "ERC721InvalidSender",
      "type": "error"
    },
    {
      "inputs": [
        {
          "internalType": "uint256",
          "name": "tokenId",
          "type": "uint256"
        }
      ],
      "name": "ERC721NonexistentToken",
      "type": "error"
    },
    {
      "inputs": [
        {
          "internalType": "address",
          "name": "owner",
          "type": "address"
        }
      ],
      "name": "OwnableInvalidOwner",
      "type": "error"
    },
    {
      "inputs": [
        {
          "internalType": "address",
          "name": "account",
          "type": "address"
        }
      ],
      "name": "OwnableUnauthorizedAccount",
      "type": "error"
    },
    {
      "anonymous": false,
      "inputs": [
        {
          "indexed": true,
          "internalType": "address",
          "name": "owner",
          "type": "address"
        },
        {
          "indexed": true,
          "internalType": "address",
          "name": "approved",
          "type": "address"
        },
        {
          "indexed": true,
          "internalType": "uint256",
          "name": "tokenId",
          "type": "uint256"
        }
      ],
      "name": "Approval",
      "type": "event"
    },
    {
      "anonymous": false,
      "inputs": [
        {
          "indexed": true,
          "internalType": "address",
          "name": "owner",
          "type": "address"
        },
        {
          "indexed": true,
          "internalType": "address",
          "name": "operator",
          "type": "address"
        },
        {
          "indexed": false,
          "internalType": "bool",
          "name": "approved",
          "type": "bool"
        }
      ],
      "name": "ApprovalForAll",
      "type": "event"
    },
    {
      "anonymous": false,
      "inputs": [
        {
          "indexed": false,
          "internalType": "uint256",
          "name": "_fromTokenId",
          "type": "uint256"
        },
        {
          "indexed": false,
          "internalType": "uint256",
          "name": "_toTokenId",
          "type": "uint256"
        }
      ],
      "name": "BatchMetadataUpdate",
      "type": "event"
    },
    {
      "anonymous": false,
      "inputs": [
        {
          "indexed": false,
          "internalType": "uint256",
          "name": "_tokenId",
          "type": "uint256"
        }
      ],
      "name": "MetadataUpdate",
      "type": "event"
    },
    {
      "anonymous": false,
      "inputs": [
        {
          "indexed": true,
          "internalType": "address",
          "name": "previousOwner",
          "type": "address"
        },
        {
          "indexed": true,
          "internalType": "address",
          "name": "newOwner",
          "type": "address"
        }
      ],
      "name": "OwnershipTransferred",
      "type": "event"
    },
    {
      "anonymous": false,
      "inputs": [
        {
          "indexed": true,
          "internalType": "address",
          "name": "from",
          "type": "address"
        },
        {
          "indexed": true,
          "internalType": "address",
          "name": "to",
          "type": "address"
        },
        {
          "indexed": true,
          "internalType": "uint256",
          "name": "tokenId",
          "type": "uint256"
        }
      ],
      "name": "Transfer",
      "type": "event"
    },
    {
      "inputs": [
        {
          "internalType": "address",
          "name": "to",
          "type": "address"
        },
        {
          "internalType": "uint256",
          "name": "tokenId",
          "type": "uint256"
        }
      ],
      "name": "approve",
      "outputs": [],
      "stateMutability": "nonpayable",
      "type": "function"
    },
    {
      "inputs": [
        {
          "internalType": "address",
          "name": "owner",
          "type": "address"
        }
      ],
      "name": "balanceOf",
      "outputs": [
        {
          "internalType": "uint256",
          "name": "",
          "type": "uint256"
        }
      ],
      "stateMutability": "view",
      "type": "function"
    },
    {
      "inputs": [],
      "name": "counter",
      "outputs": [
        {
          "internalType": "uint256",
          "name": "",
          "type": "uint256"
        }
      ],
      "stateMutability": "view",
      "type": "function"
    },
    {
      "inputs": [
        {
          "internalType": "uint256",
          "name": "tokenId",
          "type": "uint256"
        }
      ],
      "name": "getApproved",
      "outputs": [
        {
          "internalType": "address",
          "name": "",
          "type": "address"
        }
      ],
      "stateMutability": "view",
      "type": "function"
    },
    {
      "inputs": [
        {
          "internalType": "address",
          "name": "owner",
          "type": "address"
        },
        {
          "internalType": "address",
          "name": "operator",
          "type": "address"
        }
      ],
      "name": "isApprovedForAll",
      "outputs": [
        {
          "internalType": "bool",
          "name": "",
          "type": "bool"
        }
      ],
      "stateMutability": "view",
      "type": "function"
    },
    {
      "inputs": [
        {
          "internalType": "address",
          "name": "_to",
          "type": "address"
        },
        {
          "internalType": "string",
          "name": "_uri",
          "type": "string"
        }
      ],
      "name": "mint",
      "outputs": [],
      "stateMutability": "nonpayable",
      "type": "function"
    },
    {
      "inputs": [],
      "name": "name",
      "outputs": [
        {
          "internalType": "string",
          "name": "",
          "type": "string"
        }
      ],
      "stateMutability": "view",
      "type": "function"
    },
    {
      "inputs": [],
      "name": "owner",
      "outputs": [
        {
          "internalType": "address",
          "name": "",
          "type": "address"
        }
      ],
      "stateMutability": "view",
      "type": "function"
    },
    {
      "inputs": [
        {
          "internalType": "uint256",
          "name": "tokenId",
          "type": "uint256"
        }
      ],
      "name": "ownerOf",
      "outputs": [
        {
          "internalType": "address",
          "name": "",
          "type": "address"
        }
      ],
      "stateMutability": "view",
      "type": "function"
    },
    {
      "inputs": [],
      "name": "renounceOwnership",
      "outputs": [],
      "stateMutability": "nonpayable",
      "type": "function"
    },
    {
      "inputs": [
        {
          "internalType": "address",
          "name": "from",
          "type": "address"
        },
        {
          "internalType": "address",
          "name": "to",
          "type": "address"
        },
        {
          "internalType": "uint256",
          "name": "tokenId",
          "type": "uint256"
        }
      ],
      "name": "safeTransferFrom",
      "outputs": [],
      "stateMutability": "nonpayable",
      "type": "function"
    },
    {
      "inputs": [
        {
          "internalType": "address",
          "name": "from",
          "type": "address"
        },
        {
          "internalType": "address",
          "name": "to",
          "type": "address"
        },
        {
          "internalType": "uint256",
          "name": "tokenId",
          "type": "uint256"
        },
        {
          "internalType": "bytes",
          "name": "data",
          "type": "bytes"
        }
      ],
      "name": "safeTransferFrom",
      "outputs": [],
      "stateMutability": "nonpayable",
      "type": "function"
    },
    {
      "inputs": [
        {
          "internalType": "address",
          "name": "operator",
          "type": "address"
        },
        {
          "internalType": "bool",
          "name": "approved",
          "type": "bool"
        }
      ],
      "name": "setApprovalForAll",
      "outputs": [],
      "stateMutability": "nonpayable",
      "type": "function"
    },
    {
      "inputs": [
        {
          "internalType": "bytes4",
          "name": "interfaceId",
          "type": "bytes4"
        }
      ],
      "name": "supportsInterface",
      "outputs": [
        {
          "internalType": "bool",
          "name": "",
          "type": "bool"
        }
      ],
      "stateMutability": "view",
      "type": "function"
    },
    {
      "inputs": [],
      "name": "symbol",
      "outputs": [
        {
          "internalType": "string",
          "name": "",
          "type": "string"
        }
      ],
      "stateMutability": "view",
      "type": "function"
    },
    {
      "inputs": [
        {
          "internalType": "uint256",
          "name": "tokenId",
          "type": "uint256"
        }
      ],
      "name": "tokenURI",
      "outputs": [
        {
          "internalType": "string",
          "name": "",
          "type": "string"
        }
      ],
      "stateMutability": "view",
      "type": "function"
    },
    {
      "inputs": [
        {
          "internalType": "address",
          "name": "from",
          "type": "address"
        },
        {
          "internalType": "address",
          "name": "to",
          "type": "address"
        },
        {
          "internalType": "uint256",
          "name": "tokenId",
          "type": "uint256"
        }
      ],
      "name": "transferFrom",
      "outputs": [],
      "stateMutability": "nonpayable",
      "type": "function"
    },
    {
      "inputs": [
        {
          "internalType": "address",
          "name": "newOwner",
          "type": "address"
        }
      ],
      "name": "transferOwnership",
      "outputs": [],
      "stateMutability": "nonpayable",
      "type": "function"
    }
  ],
  "bytecode": "0x60806040523480156200001157600080fd5b50336040518060400160405280600981526020017f5370696465726d616e00000000000000000000000000000000000000000000008152506040518060400160405280600681526020017f5370696465720000000000000000000000000000000000000000000000000000815250816000908162000090919062000472565b508060019081620000a2919062000472565b505050600073ffffffffffffffffffffffffffffffffffffffff168173ffffffffffffffffffffffffffffffffffffffff16036200011a5760006040517f1e4fbdf70000000000000000000000000000000000000000000000000000000081526004016200011191906200059e565b60405180910390fd5b6200012b816200013260201b60201c565b50620005bb565b6000600760009054906101000a900473ffffffffffffffffffffffffffffffffffffffff16905081600760006101000a81548173ffffffffffffffffffffffffffffffffffffffff021916908373ffffffffffffffffffffffffffffffffffffffff1602179055508173ffffffffffffffffffffffffffffffffffffffff168173ffffffffffffffffffffffffffffffffffffffff167f8be0079c531659141344cd1fd0a4f28419497f9722a3daafe3b4186f6b6457e060405160405180910390a35050565b600081519050919050565b7f4e487b7100000000000000000000000000000000000000000000000000000000600052604160045260246000fd5b7f4e487b7100000000000000000000000000000000000000000000000000000000600052602260045260246000fd5b600060028204905060018216806200027a57607f821691505b60208210810362000290576200028f62000232565b5b50919050565b60008190508160005260206000209050919050565b60006020601f8301049050919050565b600082821b905092915050565b600060088302620002fa7fffffffffffffffffffffffffffffffffffffffffffffffffffffffffffffffff82620002bb565b620003068683620002bb565b95508019841693508086168417925050509392505050565b6000819050919050565b6000819050919050565b6000620003536200034d62000347846200031e565b62000328565b6200031e565b9050919050565b6000819050919050565b6200036f8362000332565b620003876200037e826200035a565b848454620002c8565b825550505050565b600090565b6200039e6200038f565b620003ab81848462000364565b505050565b5b81811015620003d357620003c760008262000394565b600181019050620003b1565b5050565b601f8211156200042257620003ec8162000296565b620003f784620002ab565b8101602085101562000407578190505b6200041f6200041685620002ab565b830182620003b0565b50505b505050565b600082821c905092915050565b6000620004476000198460080262000427565b1980831691505092915050565b600062000462838362000434565b9150826002028217905092915050565b6200047d82620001f8565b67ffffffffffffffff81111562000499576200049862000203565b5b620004a5825462000261565b620004b2828285620003d7565b600060209050601f831160018114620004ea5760008415620004d5578287015190505b620004e1858262000454565b86555062000551565b601f198416620004fa8662000296565b60005b828110156200052457848901518255600182019150602085019450602081019050620004fd565b8683101562000544578489015162000540601f89168262000434565b8355505b6001600288020188555050505b505050505050565b600073ffffffffffffffffffffffffffffffffffffffff82169050919050565b6000620005868262000559565b9050919050565b620005988162000579565b82525050565b6000602082019050620005b560008301846200058d565b92915050565b61265780620005cb6000396000f3fe608060405234801561001057600080fd5b50600436106101165760003560e01c8063715018a6116100a2578063b88d4fde11610071578063b88d4fde146102cd578063c87b56dd146102e9578063d0def52114610319578063e985e9c514610335578063f2fde38b1461036557610116565b8063715018a61461026b5780638da5cb5b1461027557806395d89b4114610293578063a22cb465146102b157610116565b806323b872dd116100e957806323b872dd146101b557806342842e0e146101d157806361bc221a146101ed5780636352211e1461020b57806370a082311461023b57610116565b806301ffc9a71461011b57806306fdde031461014b578063081812fc14610169578063095ea7b314610199575b600080fd5b61013560048036038101906101309190611aec565b610381565b6040516101429190611b34565b60405180910390f35b6101536103e2565b6040516101609190611bdf565b60405180910390f35b610183600480360381019061017e9190611c37565b610474565b6040516101909190611ca5565b60405180910390f35b6101b360048036038101906101ae9190611cec565b610490565b005b6101cf60048036038101906101ca9190611d2c565b6104a6565b005b6101eb60048036038101906101e69190611d2c565b6105a8565b005b6101f56105c8565b6040516102029190611d8e565b60405180910390f35b61022560048036038101906102209190611c37565b6105ce565b6040516102329190611ca5565b60405180910390f35b61025560048036038101906102509190611da9565b6105e0565b6040516102629190611d8e565b60405180910390f35b61027361069a565b005b61027d6106ae565b60405161028a9190611ca5565b60405180910390f35b61029b6106d8565b6040516102a89190611bdf565b60405180910390f35b6102cb60048036038101906102c69190611e02565b61076a565b005b6102e760048036038101906102e29190611f77565b610780565b005b61030360048036038101906102fe9190611c37565b61079d565b6040516103109190611bdf565b60405180910390f35b610333600480360381019061032e919061205a565b6108b0565b005b61034f600480360381019061034a91906120ba565b610931565b60405161035c9190611b34565b60405180910390f35b61037f600480360381019061037a9190611da9565b6109c5565b005b6000634906490660e01b7bffffffffffffffffffffffffffffffffffffffffffffffffffffffff1916827bffffffffffffffffffffffffffffffffffffffffffffffffffffffff191614806103db57506103da82610a4b565b5b9050919050565b6060600080546103f190612129565b80601f016020809104026020016040519081016040528092919081815260200182805461041d90612129565b801561046a5780601f1061043f5761010080835404028352916020019161046a565b820191906000526020600020905b81548152906001019060200180831161044d57829003601f168201915b5050505050905090565b600061047f82610b2d565b5061048982610bb5565b9050919050565b6104a2828261049d610bf2565b610bfa565b5050565b600073ffffffffffffffffffffffffffffffffffffffff168273ffffffffffffffffffffffffffffffffffffffff16036105185760006040517f64a0ae9200000000000000000000000000000000000000000000000000000000815260040161050f9190611ca5565b60405180910390fd5b600061052c8383610527610bf2565b610c0c565b90508373ffffffffffffffffffffffffffffffffffffffff168173ffffffffffffffffffffffffffffffffffffffff16146105a2578382826040517f64283d7b0000000000000000000000000000000000000000000000000000000081526004016105999392919061215a565b60405180910390fd5b50505050565b6105c383838360405180602001604052806000815250610780565b505050565b60085481565b60006105d982610b2d565b9050919050565b60008073ffffffffffffffffffffffffffffffffffffffff168273ffffffffffffffffffffffffffffffffffffffff16036106535760006040517f89c62b6400000000000000000000000000000000000000000000000000000000815260040161064a9190611ca5565b60405180910390fd5b600360008373ffffffffffffffffffffffffffffffffffffffff1673ffffffffffffffffffffffffffffffffffffffff168152602001908152602001600020549050919050565b6106a2610e26565b6106ac6000610ead565b565b6000600760009054906101000a900473ffffffffffffffffffffffffffffffffffffffff16905090565b6060600180546106e790612129565b80601f016020809104026020016040519081016040528092919081815260200182805461071390612129565b80156107605780601f1061073557610100808354040283529160200191610760565b820191906000526020600020905b81548152906001019060200180831161074357829003601f168201915b5050505050905090565b61077c610775610bf2565b8383610f73565b5050565b61078b8484846104a6565b610797848484846110e2565b50505050565b60606107a882610b2d565b5060006006600084815260200190815260200160002080546107c990612129565b80601f01602080910402602001604051908101604052809291908181526020018280546107f590612129565b80156108425780601f1061081757610100808354040283529160200191610842565b820191906000526020600020905b81548152906001019060200180831161082557829003601f168201915b505050505090506000610853611299565b905060008151036108685781925050506108ab565b60008251111561089d5780826040516020016108859291906121cd565b604051602081830303815290604052925050506108ab565b6108a6846112b0565b925050505b919050565b6108b8610e26565b600860008154809291906108cb90612220565b91905055506108dc83600854611319565b61092c60085483838080601f016020809104026020016040519081016040528093929190818152602001838380828437600081840152601f19601f82011690508083019250505050505050611412565b505050565b6000600560008473ffffffffffffffffffffffffffffffffffffffff1673ffffffffffffffffffffffffffffffffffffffff16815260200190815260200160002060008373ffffffffffffffffffffffffffffffffffffffff1673ffffffffffffffffffffffffffffffffffffffff16815260200190815260200160002060009054906101000a900460ff16905092915050565b6109cd610e26565b600073ffffffffffffffffffffffffffffffffffffffff168173ffffffffffffffffffffffffffffffffffffffff1603610a3f5760006040517f1e4fbdf7000000000000000000000000000000000000000000000000000000008152600401610a369190611ca5565b60405180910390fd5b610a4881610ead565b50565b60007f80ac58cd000000000000000000000000000000000000000000000000000000007bffffffffffffffffffffffffffffffffffffffffffffffffffffffff1916827bffffffffffffffffffffffffffffffffffffffffffffffffffffffff19161480610b1657507f5b5e139f000000000000000000000000000000000000000000000000000000007bffffffffffffffffffffffffffffffffffffffffffffffffffffffff1916827bffffffffffffffffffffffffffffffffffffffffffffffffffffffff1916145b80610b265750610b258261146e565b5b9050919050565b600080610b39836114d8565b9050600073ffffffffffffffffffffffffffffffffffffffff168173ffffffffffffffffffffffffffffffffffffffff1603610bac57826040517f7e273289000000000000000000000000000000000000000000000000000000008152600401610ba39190611d8e565b60405180910390fd5b80915050919050565b60006004600083815260200190815260200160002060009054906101000a900473ffffffffffffffffffffffffffffffffffffffff169050919050565b600033905090565b610c078383836001611515565b505050565b600080610c18846114d8565b9050600073ffffffffffffffffffffffffffffffffffffffff168373ffffffffffffffffffffffffffffffffffffffff1614610c5a57610c598184866116da565b5b600073ffffffffffffffffffffffffffffffffffffffff168173ffffffffffffffffffffffffffffffffffffffff1614610ceb57610c9c600085600080611515565b6001600360008373ffffffffffffffffffffffffffffffffffffffff1673ffffffffffffffffffffffffffffffffffffffff168152602001908152602001600020600082825403925050819055505b600073ffffffffffffffffffffffffffffffffffffffff168573ffffffffffffffffffffffffffffffffffffffff1614610d6e576001600360008773ffffffffffffffffffffffffffffffffffffffff1673ffffffffffffffffffffffffffffffffffffffff168152602001908152602001600020600082825401925050819055505b846002600086815260200190815260200160002060006101000a81548173ffffffffffffffffffffffffffffffffffffffff021916908373ffffffffffffffffffffffffffffffffffffffff160217905550838573ffffffffffffffffffffffffffffffffffffffff168273ffffffffffffffffffffffffffffffffffffffff167fddf252ad1be2c89b69c2b068fc378daa952ba7f163c4a11628f55a4df523b3ef60405160405180910390a4809150509392505050565b610e2e610bf2565b73ffffffffffffffffffffffffffffffffffffffff16610e4c6106ae565b73ffffffffffffffffffffffffffffffffffffffff1614610eab57610e6f610bf2565b6040517f118cdaa7000000000000000000000000000000000000000000000000000000008152600401610ea29190611ca5565b60405180910390fd5b565b6000600760009054906101000a900473ffffffffffffffffffffffffffffffffffffffff16905081600760006101000a81548173ffffffffffffffffffffffffffffffffffffffff021916908373ffffffffffffffffffffffffffffffffffffffff1602179055508173ffffffffffffffffffffffffffffffffffffffff168173ffffffffffffffffffffffffffffffffffffffff167f8be0079c531659141344cd1fd0a4f28419497f9722a3daafe3b4186f6b6457e060405160405180910390a35050565b600073ffffffffffffffffffffffffffffffffffffffff168273ffffffffffffffffffffffffffffffffffffffff1603610fe457816040517f5b08ba18000000000000000000000000000000000000000000000000000000008152600401610fdb9190611ca5565b60405180910390fd5b80600560008573ffffffffffffffffffffffffffffffffffffffff1673ffffffffffffffffffffffffffffffffffffffff16815260200190815260200160002060008473ffffffffffffffffffffffffffffffffffffffff1673ffffffffffffffffffffffffffffffffffffffff16815260200190815260200160002060006101000a81548160ff0219169083151502179055508173ffffffffffffffffffffffffffffffffffffffff168373ffffffffffffffffffffffffffffffffffffffff167f17307eab39ab6107e8899845ad3d59bd9653f200f220920489ca2b5937696c31836040516110d59190611b34565b60405180910390a3505050565b60008373ffffffffffffffffffffffffffffffffffffffff163b1115611293578273ffffffffffffffffffffffffffffffffffffffff1663150b7a02611126610bf2565b8685856040518563ffffffff1660e01b815260040161114894939291906122bd565b6020604051808303816000875af192505050801561118457506040513d601f19601f82011682018060405250810190611181919061231e565b60015b611208573d80600081146111b4576040519150601f19603f3d011682016040523d82523d6000602084013e6111b9565b606091505b50600081510361120057836040517f64a0ae920000000000000000000000000000000000000000000000000000000081526004016111f79190611ca5565b60405180910390fd5b805181602001fd5b63150b7a0260e01b7bffffffffffffffffffffffffffffffffffffffffffffffffffffffff1916817bffffffffffffffffffffffffffffffffffffffffffffffffffffffff19161461129157836040517f64a0ae920000000000000000000000000000000000000000000000000000000081526004016112889190611ca5565b60405180910390fd5b505b50505050565b606060405180602001604052806000815250905090565b60606112bb82610b2d565b5060006112c6611299565b905060008151116112e65760405180602001604052806000815250611311565b806112f08461179e565b6040516020016113019291906121cd565b6040516020818303038152906040525b915050919050565b600073ffffffffffffffffffffffffffffffffffffffff168273ffffffffffffffffffffffffffffffffffffffff160361138b5760006040517f64a0ae920000000000000000000000000000000000000000000000000000000081526004016113829190611ca5565b60405180910390fd5b600061139983836000610c0c565b9050600073ffffffffffffffffffffffffffffffffffffffff168173ffffffffffffffffffffffffffffffffffffffff161461140d5760006040517f73c6ac6e0000000000000000000000000000000000000000000000000000000081526004016114049190611ca5565b60405180910390fd5b505050565b8060066000848152602001908152602001600020908161143291906124f7565b507ff8e1a15aba9398e019f0b49df1a4fde98ee17ae345cb5f6b5e2c27f5033e8ce7826040516114629190611d8e565b60405180910390a15050565b60007f01ffc9a7000000000000000000000000000000000000000000000000000000007bffffffffffffffffffffffffffffffffffffffffffffffffffffffff1916827bffffffffffffffffffffffffffffffffffffffffffffffffffffffff1916149050919050565b60006002600083815260200190815260200160002060009054906101000a900473ffffffffffffffffffffffffffffffffffffffff169050919050565b808061154e5750600073ffffffffffffffffffffffffffffffffffffffff168273ffffffffffffffffffffffffffffffffffffffff1614155b1561168257600061155e84610b2d565b9050600073ffffffffffffffffffffffffffffffffffffffff168373ffffffffffffffffffffffffffffffffffffffff16141580156115c957508273ffffffffffffffffffffffffffffffffffffffff168173ffffffffffffffffffffffffffffffffffffffff1614155b80156115dc57506115da8184610931565b155b1561161e57826040517fa9fbf51f0000000000000000000000000000000000000000000000000000000081526004016116159190611ca5565b60405180910390fd5b811561168057838573ffffffffffffffffffffffffffffffffffffffff168273ffffffffffffffffffffffffffffffffffffffff167f8c5be1e5ebec7d5bd14f71427d1e84f3dd0314c0f7b2291e5b200ac8c7c3b92560405160405180910390a45b505b836004600085815260200190815260200160002060006101000a81548173ffffffffffffffffffffffffffffffffffffffff021916908373ffffffffffffffffffffffffffffffffffffffff16021790555050505050565b6116e583838361186c565b61179957600073ffffffffffffffffffffffffffffffffffffffff168373ffffffffffffffffffffffffffffffffffffffff160361175a57806040517f7e2732890000000000000000000000000000000000000000000000000000000081526004016117519190611d8e565b60405180910390fd5b81816040517f177e802f0000000000000000000000000000000000000000000000000000000081526004016117909291906125c9565b60405180910390fd5b505050565b6060600060016117ad8461192d565b01905060008167ffffffffffffffff8111156117cc576117cb611e4c565b5b6040519080825280601f01601f1916602001820160405280156117fe5781602001600182028036833780820191505090505b509050600082602001820190505b600115611861578080600190039150507f3031323334353637383961626364656600000000000000000000000000000000600a86061a8153600a8581611855576118546125f2565b5b0494506000850361180c575b819350505050919050565b60008073ffffffffffffffffffffffffffffffffffffffff168373ffffffffffffffffffffffffffffffffffffffff161415801561192457508273ffffffffffffffffffffffffffffffffffffffff168473ffffffffffffffffffffffffffffffffffffffff1614806118e557506118e48484610931565b5b8061192357508273ffffffffffffffffffffffffffffffffffffffff1661190b83610bb5565b73ffffffffffffffffffffffffffffffffffffffff16145b5b90509392505050565b600080600090507a184f03e93ff9f4daa797ed6e38ed64bf6a1f010000000000000000831061198b577a184f03e93ff9f4daa797ed6e38ed64bf6a1f0100000000000000008381611981576119806125f2565b5b0492506040810190505b6d04ee2d6d415b85acef810000000083106119c8576d04ee2d6d415b85acef810000000083816119be576119bd6125f2565b5b0492506020810190505b662386f26fc1000083106119f757662386f26fc1000083816119ed576119ec6125f2565b5b0492506010810190505b6305f5e1008310611a20576305f5e1008381611a1657611a156125f2565b5b0492506008810190505b6127108310611a45576127108381611a3b57611a3a6125f2565b5b0492506004810190505b60648310611a685760648381611a5e57611a5d6125f2565b5b0492506002810190505b600a8310611a77576001810190505b80915050919050565b6000604051905090565b600080fd5b600080fd5b60007fffffffff0000000000000000000000000000000000000000000000000000000082169050919050565b611ac981611a94565b8114611ad457600080fd5b50565b600081359050611ae681611ac0565b92915050565b600060208284031215611b0257611b01611a8a565b5b6000611b1084828501611ad7565b91505092915050565b60008115159050919050565b611b2e81611b19565b82525050565b6000602082019050611b496000830184611b25565b92915050565b600081519050919050565b600082825260208201905092915050565b60005b83811015611b89578082015181840152602081019050611b6e565b60008484015250505050565b6000601f19601f8301169050919050565b6000611bb182611b4f565b611bbb8185611b5a565b9350611bcb818560208601611b6b565b611bd481611b95565b840191505092915050565b60006020820190508181036000830152611bf98184611ba6565b905092915050565b6000819050919050565b611c1481611c01565b8114611c1f57600080fd5b50565b600081359050611c3181611c0b565b92915050565b600060208284031215611c4d57611c4c611a8a565b5b6000611c5b84828501611c22565b91505092915050565b600073ffffffffffffffffffffffffffffffffffffffff82169050919050565b6000611c8f82611c64565b9050919050565b611c9f81611c84565b82525050565b6000602082019050611cba6000830184611c96565b92915050565b611cc981611c84565b8114611cd457600080fd5b50565b600081359050611ce681611cc0565b92915050565b60008060408385031215611d0357611d02611a8a565b5b6000611d1185828601611cd7565b9250506020611d2285828601611c22565b9150509250929050565b600080600060608486031215611d4557611d44611a8a565b5b6000611d5386828701611cd7565b9350506020611d6486828701611cd7565b9250506040611d7586828701611c22565b9150509250925092565b611d8881611c01565b82525050565b6000602082019050611da36000830184611d7f565b92915050565b600060208284031215611dbf57611dbe611a8a565b5b6000611dcd84828501611cd7565b91505092915050565b611ddf81611b19565b8114611dea57600080fd5b50565b600081359050611dfc81611dd6565b92915050565b60008060408385031215611e1957611e18611a8a565b5b6000611e2785828601611cd7565b9250506020611e3885828601611ded565b9150509250929050565b600080fd5b600080fd5b7f4e487b7100000000000000000000000000000000000000000000000000000000600052604160045260246000fd5b611e8482611b95565b810181811067ffffffffffffffff82111715611ea357611ea2611e4c565b5b80604052505050565b6000611eb6611a80565b9050611ec28282611e7b565b919050565b600067ffffffffffffffff821115611ee257611ee1611e4c565b5b611eeb82611b95565b9050602081019050919050565b82818337600083830152505050565b6000611f1a611f1584611ec7565b611eac565b905082815260208101848484011115611f3657611f35611e47565b5b611f41848285611ef8565b509392505050565b600082601f830112611f5e57611f5d611e42565b5b8135611f6e848260208601611f07565b91505092915050565b60008060008060808587031215611f9157611f90611a8a565b5b6000611f9f87828801611cd7565b9450506020611fb087828801611cd7565b9350506040611fc187828801611c22565b925050606085013567ffffffffffffffff811115611fe257611fe1611a8f565b5b611fee87828801611f49565b91505092959194509250565b600080fd5b600080fd5b60008083601f84011261201a57612019611e42565b5b8235905067ffffffffffffffff81111561203757612036611ffa565b5b60208301915083600182028301111561205357612052611fff565b5b9250929050565b60008060006040848603121561207357612072611a8a565b5b600061208186828701611cd7565b935050602084013567ffffffffffffffff8111156120a2576120a1611a8f565b5b6120ae86828701612004565b92509250509250925092565b600080604083850312156120d1576120d0611a8a565b5b60006120df85828601611cd7565b92505060206120f085828601611cd7565b9150509250929050565b7f4e487b7100000000000000000000000000000000000000000000000000000000600052602260045260246000fd5b6000600282049050600182168061214157607f821691505b602082108103612154576121536120fa565b5b50919050565b600060608201905061216f6000830186611c96565b61217c6020830185611d7f565b6121896040830184611c96565b949350505050565b600081905092915050565b60006121a782611b4f565b6121b18185612191565b93506121c1818560208601611b6b565b80840191505092915050565b60006121d9828561219c565b91506121e5828461219c565b91508190509392505050565b7f4e487b7100000000000000000000000000000000000000000000000000000000600052601160045260246000fd5b600061222b82611c01565b91507fffffffffffffffffffffffffffffffffffffffffffffffffffffffffffffffff820361225d5761225c6121f1565b5b600182019050919050565b600081519050919050565b600082825260208201905092915050565b600061228f82612268565b6122998185612273565b93506122a9818560208601611b6b565b6122b281611b95565b840191505092915050565b60006080820190506122d26000830187611c96565b6122df6020830186611c96565b6122ec6040830185611d7f565b81810360608301526122fe8184612284565b905095945050505050565b60008151905061231881611ac0565b92915050565b60006020828403121561233457612333611a8a565b5b600061234284828501612309565b91505092915050565b60008190508160005260206000209050919050565b60006020601f8301049050919050565b600082821b905092915050565b6000600883026123ad7fffffffffffffffffffffffffffffffffffffffffffffffffffffffffffffffff82612370565b6123b78683612370565b95508019841693508086168417925050509392505050565b6000819050919050565b60006123f46123ef6123ea84611c01565b6123cf565b611c01565b9050919050565b6000819050919050565b61240e836123d9565b61242261241a826123fb565b84845461237d565b825550505050565b600090565b61243761242a565b612442818484612405565b505050565b5b818110156124665761245b60008261242f565b600181019050612448565b5050565b601f8211156124ab5761247c8161234b565b61248584612360565b81016020851015612494578190505b6124a86124a085612360565b830182612447565b50505b505050565b600082821c905092915050565b60006124ce600019846008026124b0565b1980831691505092915050565b60006124e783836124bd565b9150826002028217905092915050565b61250082611b4f565b67ffffffffffffffff81111561251957612518611e4c565b5b6125238254612129565b61252e82828561246a565b600060209050601f831160018114612561576000841561254f578287015190505b61255985826124db565b8655506125c1565b601f19841661256f8661234b565b60005b8281101561259757848901518255600182019150602085019450602081019050612572565b868310156125b457848901516125b0601f8916826124bd565b8355505b6001600288020188555050505b505050505050565b60006040820190506125de6000830185611c96565b6125eb6020830184611d7f565b9392505050565b7f4e487b7100000000000000000000000000000000000000000000000000000000600052601260045260246000fdfea2646970667358221220a8b9984cbb601ffa2e8d97d52584e3c8b6ef947b73d3534125d72f6d9a2f0fb664736f6c63430008180033",
  "linkReferences": {},
  "deployedLinkReferences": {}
}